S01F000062696E2F64656D6F54696D65725F73746D3332663130332E73726563E5
S31508002000005000204D2100080F310008113100084A
S3150800201013310008153100081731000800000000C8
S315080020200000000000000000000000001931000850
S315080020301B310008000000001D3100081F31000890
S31508002040952100089521000895210008952100088A
S31508002050952100089521000895210008952100087A
S31508002060952100089521000895210008952100086A
S31508002070952100089521000895210008952100085A
S31508002080952100089521000895210008952100084A
S31508002090952100089521000895210008952100083A
S315080020A0952100089521000895210008952100082A
S315080020B02931000895210008952100089521000876
S315080020C0952100089521000895210008952100080A
S315080020D095210008952100089521000895210008FA
S315080020E095210008952100089521000800000000A8
S315080020F000000000000000000000000000000000D2
S3110800210000000000000000005FF808F175
S3150800210C10B5054C237833B9044B13B10448AFF317
S3150800211C00800123237010BD0C0000200000000075
S3150800212CDC31000808B5034B1BB103490348AFF370
S3150800213C008008BD0000000010000020DC310008FB
S3150800214C002103E00B4B5B58435004310A480B4BF8
S3150800215C42189A42F6D30A4A02E0002342F8043B94
S3150800216C084B9A42F9D300F0E1FF01F005F800F0AC
S3150800217C79FF704720320008000000200C00002070
S3150800218C0C0000206C000020FEE7000010B5044689
S3150800219C0E4B18784FF47A73B3FBF0F30C4A1068AD
S315080021ACB0FBF3F000F094F868B90F2C01D90120B4
S315080021BC0AE0002221464FF0FF3000F043F8054BA9
S315080021CC1C60002000E0012010BD00BF00000020AC
S315080021DC080000200400002008B5074A136843F0DD
S315080021EC10031360032000F01BF80020FFF7CEFF46
S315080021FC00F048FF002008BD00200240034A116881
S3150800220C034B1B780B441360704700BF2800002053
S3150800221C00000020014B1868704700BF28000020FA
S3150800222C074AD36823F4E0631B041B0C000200F472
S3150800223CE060034343F0BF6343F40033D360704755
S3150800224C00ED00E000B5194BDB68C3F30223C3F1BC
S3150800225C070CBCF1040F28BF4FF0040C03F1040E55
S3150800226CBEF1060F18D9033B4FF0FF3E0EFA0CFCD5
S3150800227C21EA0C0199400EFA03F322EA03031943E7
S3150800228C00280BDB0901C9B200F1604000F561407A
S3150800229C80F800135DF804FB0023E5E700F00F0057
S315080022AC0901C9B2024B1954F4E700BF00ED00E06E
S315080022BC14ED00E0002807DB00F01F02400901239B
S315080022CC9340024A42F82030704700BF00E100E014
S315080022DC0138B0F1807F0BD24FF0E0235861054AE4
S315080022ECF02182F823100020986107221A617047A2
S315080022FC0120704700ED00E070B582B00024A446BA
S3150800230CA6E0804DAA4210D007D97F4DAA420CD020
S3150800231C05F58035AA4208D013E0A5F58015AA4222
S3150800232C03D005F57025AA4207D18A68002A58D029
S3150800233C012A51D04361082403E0A5F58015AA4269
S3150800234CF3D0BEF1FF0F4ED80646BEF1FF0F4CD8A0
S3150800235C4FEA8C0233680F25954023EA050304FAE5
S3150800236C02F2134333604B6813F0805F6ED0674BF1
S3150800237C9A6942F001029A619B6903F00103019381
S3150800238C019B4FEA9C02951C614B53F825600CF097
S3150800239C03039D000F23AB4026EA03065D4B9842C8
S315080023AC29D003F58063984200F08E8003F580638C
S315080023BC984200F08B8003F58063984219D0042369
S315080023CC1AE0CC68BDE7CC680434BAE7CC680834A4
S315080023DCB7E7CC680C34B4E703610824B1E70024EA
S315080023ECAFE70424ADE7061DAFE7ACF1080292008F
S315080023FCB0E7032300E00023AB4033430232444DDD
S3150800240C45F822304B6813F4803F61D0424A136872
S3150800241C43EA0E0313604B6813F4003F5ED03E4A42
S3150800242C536843EA0E0353604B6813F4801F5BD062
S3150800243C394A936843EA0E0393604B6813F4001FFA
S3150800244C58D0354AD36843EA0E03D3600CF1010C15
S3150800245C0A6832FA0CF353D0012303FA0CF302EA96
S3150800246C030E33EA0202F1D14A68122A3FF649AF43
S3150800247C122A3FF666AF01A555F822F03723000855
S3150800248CCF230008D9230008EB2300084F230008A4
S3150800249C4F2300084F2300084F2300084F2300083A
S315080024AC4F2300084F2300084F2300084F2300082A
S315080024BC4F2300084F2300084F2300084F2300081A
S315080024CCD3230008DF230008012395E7022393E7AB
S315080024DC114A136823EA0E0313609CE70E4A5368E5
S315080024EC23EA0E0353609FE70B4A936823EA0E030D
S315080024FC9360A2E7084AD36823EA0E03D360A5E7DC
S3150800250C02B070BD0000221000003110001002400D
S3150800251C0000014000080140000401400AB10161B5
S3150800252C7047090401617047C3680B4201D04161C9
S3150800253C704701617047000082B0084B1B68084A57
S3150800254CA2FB03235B0A00FB03F3019300BF019B69
S3150800255C5A1E0192002BF9D102B0704708000020D0
S3150800256CD34D6210002800F0F18170B582B0044694
S3150800257C036813F0010F2CD0994B5B6803F00C031E
S3150800258C042B1DD0964B5B6803F00C03082B12D05A
S3150800259C6368B3F5803F41D0002B55D103F18043D6
S315080025AC03F504331A6822F480321A601A6822F486
S315080025BC80221A6037E08A4B5B6813F4803FE7D0B9
S315080025CC874B1B6813F4003F03D06368002B00F09D
S315080025DCBF81236813F0020F75D0814B5B6813F02B
S315080025EC0C0F5FD07E4B5B6803F00C03082B54D0A2
S315080025FC2369002B00F08A807A4B01221A60FFF7B8
S3150800260C09FE0546764B1B6813F0020F75D1FFF7CA
S3150800261C01FE401B0228F5D903209EE1704A136877
S3150800262C43F480331360636843B3FFF7F3FD054641
S3150800263C6B4B1B6813F4003FCBD1FFF7EBFD401B2C
S3150800264C6428F5D9032088E1B3F5A02F09D0644B8B
S3150800265C1A6822F480321A601A6822F480221A60E8
S3150800266CE1E703F18043A3F53C331A6842F4802270
S3150800267C1A601A6842F480321A60D4E7FFF7CAFD6A
S3150800268C0546574B1B6813F4003FA2D0FFF7C2FD53
S3150800269C401B6428F5D903205FE1514B5B6813F4A2
S315080026AC803FA5D14E4B1B6813F0020F03D023694C
S315080026BC012B40F04F814A4A136823F0F8036169ED
S315080026CC43EAC1031360236813F0080F33D0A369D8
S315080026DC002B5CD0434B0122C3F88024FFF79AFDEC
S315080026EC05463F4B5B6A13F0020F21D1FFF792FDAB
S315080026FC401B0228F5D903202FE1394A136823F029
S3150800270CF803616943EAC1031360DCE7354B002221
S3150800271C1A60FFF77FFD0546314B1B6813F0020F55
S3150800272CD1D0FFF777FD401B0228F5D9032014E119
S3150800273C0120FFF701FF236813F0040F00F09680C1
S3150800274C274BDB6913F0805F34D1254BDA6942F0ED
S3150800275C8052DA61DB6903F080530193019B0125F2
S3150800276C214B1B6813F4807F26D0E368012B3DD0E0
S3150800277C002B53D103F1804303F504331A6A22F074
S3150800278C01021A621A6A22F004021A6233E0154B25
S3150800279C0022C3F88024FFF73DFD0546104B5B6A03
S315080027AC13F0020FC7D0FFF735FD401B0228F5D9E9
S315080027BC0320D2E00025D3E70B4A136843F4807351
S315080027CC1360FFF727FD0646074B1B6813F4807F3B
S315080027DCCBD1FFF71FFD801B6428F5D90320BCE07D
S315080027EC0010024000004242007000405F4A136A23
S315080027FC43F001031362E36833B3FFF70BFD064698
S3150800280C5A4B1B6A13F0020F2FD1FFF703FD801BDF
S3150800281C41F288339842F3D903209EE0052B09D060
S3150800282C524B1A6A22F001021A621A6A22F0040240
S3150800283C1A62E0E74D4B1A6A42F004021A621A6AE7
S3150800284C42F001021A62D6E7FFF7E4FC0646474B4C
S3150800285C1B6A13F0020F08D0FFF7DCFC801B41F251
S3150800286C88339842F3D9032077E0E5B9E369002B5E
S3150800287C72D03E4A526802F00C02082A56D0022B35
S3150800288C17D03B4B00221A66FFF7C4FC0446374B9D
S3150800289C1B6813F0007F47D0FFF7BCFC001B02280F
S315080028ACF5D9032059E0314AD36923F08053D36113
S315080028BCDCE72F4B00221A66FFF7ACFC05462B4BC0
S315080028CC1B6813F0007F06D0FFF7A4FC401B0228F8
S315080028DCF5D9032041E0236AB3F5803F1AD0234982
S315080028EC4B6823F47413226A606A024313434B60E1
S315080028FC1F4B01221A66FFF78DFC04461B4B1B68FF
S3150800290C13F0007F0ED1FFF785FC001B0228F5D9C2
S3150800291C032022E0154A536823F40033A1680B43BD
S3150800292C5360DCE7002018E0002016E0012B16D0D7
S3150800293C0E4B5B6803F48031226A914211D103F481
S3150800294C7013626A93420ED1002006E0012070478C
S3150800295C012002E0012000E0002002B070BD012039
S3150800296CFBE70120F9E70120F7E700BF001002405A
S3150800297C0000424286B0174B0FCB0DF1180C0CE930
S3150800298C0F0040F20123ADF80430134B5B6803F0DB
S3150800299C0C02082A02D0114806B07047C3F38342CA
S315080029AC18326A4412F8100C13F4803F0DD00A4BF7
S315080029BC5B68C3F3404318336B4413F8143C074A5B
S315080029CC02FB00F0B0FBF3F0E6E7054B03FB00F067
S315080029DCE2E700BFF43100080010024000127A004A
S315080029EC00093D00002800F0A08070B50D4604468D
S315080029FC524B1B6803F007038B420BD24F4A1368E2
S31508002A0C23F007030B431360136803F007038B4289
S31508002A1C40F08D80236813F0020F17D013F0040FC3
S31508002A2C04D0474A536843F4E0635360236813F0B1
S31508002A3C080F04D0424A536843F460535360404A23
S31508002A4C536823F0F003A1680B435360236813F013
S31508002A5C010F31D06368012B20D0022B25D0384AC0
S31508002A6C126812F0020F64D035494A6822F0030244
S31508002A7C13434B60FFF7CEFB0646314B5B6803F0FE
S31508002A8C0C036268B3EB820F16D0FFF7C3FB801BEF
S31508002A9C41F288339842F0D9032045E0284A126857
S31508002AAC12F4003FE0D101203EE0254A126812F0EC
S31508002ABC007FD9D1012037E0204B1B6803F00703B0
S31508002ACCAB420AD91D4A136823F007032B4313603C
S31508002ADC136803F00703AB422DD1236813F0040FD8
S31508002AEC06D0174A536823F4E063E1680B43536036
S31508002AFC236813F0080F07D0114A536823F4605360
S31508002B0C216943EAC1035360FFF734FF0C4B5B683A
S31508002B1CC3F303130B4AD35CD8400B4B18600B4B0F
S31508002B2C1868FFF733FB002070BD012070470120A1
S31508002B3CFAE70120F8E70120F6E700BF002002407B
S31508002B4C001002400832000808000020040000208B
S31508002B5C10B4036A046A24F001040462846924F03C
S31508002B6CF00C4CEA021223F00A030B43826103624F
S31508002B7C10BC704710B4046A24F01004046284690B
S31508002B8C036A24F4704C4CEA023223F0A00343EA9D
S31508002B9C01138261036210BC7047836823F07003CB
S31508002BAC0B4343F00703836070470268D36843F00E
S31508002BBC0103D3600268936803F00703062B03D05E
S31508002BCC136843F001031360002070477047704781
S31508002BDC7047704710B5044603681A6912F0020F5D
S31508002BEC11D0DA6812F0020F0DD06FF002021A61DA
S31508002BFC0123037703689B6913F0030F70D0FFF763
S31508002C0CE6FF0023237723681A6912F0040F12D003
S31508002C1CDA6812F0040F0ED06FF004021A61022360
S31508002C2C237723689B6913F4407F5FD02046FFF710
S31508002C3CCEFF0023237723681A6912F0080F12D0E7
S31508002C4CDA6812F0080F0ED06FF008021A61042326
S31508002C5C23772368DB6913F0030F4ED02046FFF762
S31508002C6CB6FF0023237723681A6912F0100F12D0C7
S31508002C7CDA6812F0100F0ED06FF010021A610823E2
S31508002C8C23772368DB6913F4407F3DD02046FFF792
S31508002C9C9EFF0023237723681A6912F0010F03D0CD
S31508002CACDA6812F0010F36D123681A6912F0800F10
S31508002CBC03D0DA6812F0800F34D123681A6912F03F
S31508002CCC400F03D0DA6812F0400F32D123681A6924
S31508002CDC12F0200F03D0DA6812F0200F30D110BD95
S31508002CECFFF774FF2046FFF773FF8AE72046FFF7C6
S31508002CFC6DFF2046FFF76CFF9BE72046FFF766FF44
S31508002D0C2046FFF765FFACE72046FFF75FFF204636
S31508002D1CFFF75EFFBDE76FF001021A61204600F06F
S31508002D2C6FF9C1E76FF080021A61204600F002F9CC
S31508002D3CC3E76FF040021A612046FFF74AFFC5E762
S31508002D4C6FF020021A61204600F0F3F8C7E700007E
S31508002D5C03681B4A90420AD0B0F1804F07D0A2F5FF
S31508002D6C9432904203D002F58062904203D123F04C
S31508002D7C70034A681343124A90420AD0B0F1804F46
S31508002D8C07D0A2F59432904203D002F580629042A5
S31508002D9C03D123F44073CA68134323F080034A69AA
S31508002DAC134303608B68C3620B688362044B9842B7
S31508002DBC02D00123436170470B690363F9E700BF2F
S31508002DCC002C0140B0B110B5044690F83D3063B103
S31508002DDC022384F83D30214651F8040BFFF7B8FF5F
S31508002DEC012384F83D30002010BD80F83C3000F0FB
S31508002DFC6BF9EDE70120704710B4846824F47F4C16
S31508002E0C42EA03220A4342EA0C02826010BC70476B
S31508002E1C90F83C30012B66D010B50446012380F897
S31508002E2C3C30022380F83D300268936823F47F43D4
S31508002E3C23F0770393600B68602B40D022D8402B85
S31508002E4C47D00BD9502B0ED1CA6849680068FFF7D2
S31508002E5C7FFE50212068FFF7A0FE04E0202B0CD043
S31508002E6C08D9302B09D0012384F83D30002084F88A
S31508002E7C3C0010BD0BB1102BF5D119462068FFF795
S31508002E8C8CFEF0E7702B0ED0B3F5005FEBD1CB6858
S31508002E9C4A6889680068FFF7AFFF2268936843F4AD
S31508002EAC80439360DFE7CB684A6889680068FFF758
S31508002EBCA3FF2268936843F077039360D3E7CA6845
S31508002ECC49680068FFF756FE60212068FFF765FE23
S31508002EDCC9E7CA6849680068FFF73AFE40212068C6
S31508002EECFFF75BFEBFE70220704790F83C30012BDA
S31508002EFC1DD030B54FF0010E80F83CE0022380F867
S31508002F0C3D3002685468936824F070040D682C43AD
S31508002F1C23F0800C4B6843EA0C03546002689360F8
S31508002F2C80F83DE0002380F83C30184630BD02207E
S31508002F3C704770477047000030B589B00024049478
S31508002F4C059406940794174B9A6942F010029A61F5
S31508002F5C9A6902F010020192019A9A6942F00802E3
S31508002F6C9A619A6902F008020292029A9A6942F0E8
S31508002F7C04029A619B6903F004030393039B0A4DAD
S31508002F8C224604212846FFF7C9FA04230493012391
S31508002F9C059306940223079304A92846FFF7ACF970
S31508002FAC09B030BD00100240000C014030B587B0A6
S31508002FBC00240294039404940594009401940F4DF0
S31508002FCC4FF080432B604FF4E1536B60AC6042F2D8
S31508002FDC1073EB602C61AC612846FFF7F3FE4FF4D7
S31508002FEC8053029302A92846FFF712FF0094019416
S31508002FFC69462846FFF779FF07B030BD2C0000203C
S3150800300C08B504210148FFF78FFA08BD000C0140EA
S3150800301C30B591B02822002106A800F0D1F800247A
S3150800302C01940294039404940594012206924FF495
S3150800303C803307930A9202250D950E934FF4E013ED
S3150800304C0F9306A8FFF78EFA0F23019302950394A4
S3150800305C4FF4806304930594294601A8FFF7C2FC34
S3150800306C11B030BD08B5FFF7B7F8FFF7D1FFFFF77A
S3150800307C63FFFFF79BFF0248FFF797FDFEE700BFCC
S3150800308C2C00002082B00E4B9A6942F001029A611C
S3150800309C9A6902F001020092009ADA6942F08052AB
S315080030ACDA61DB6903F080530193019B054A536887
S315080030BC23F0E06343F00073536002B0704700BF1F
S315080030CC00100240000001400368B3F1804F00D0A5
S315080030DC704700B583B003F50433DA6942F0010290
S315080030ECDA61DB6903F001030193019B00221146A7
S315080030FC1C20FFF7A7F81C20FFF7DCF803B05DF8D7
S3150800310C04FB7047FEE7FEE7FEE7FEE770477047ED
S3150800311C704708B5FFF772F808BD000008B50248F5
S3150800312CFFF758FD08BD00BF2C0000200E4B1A688F
S3150800313C42F001021A6059680C4A0A405A601A6829
S3150800314C22F0847222F480321A601A6822F48022E1
S3150800315C1A605A6822F4FE025A604FF41F029A60EB
S3150800316C034B044A9A607047001002400000FFF8AF
S3150800317C00ED00E00020000870B500260C4D0D4C43
S3150800318C641BA410A64209D100F022F800260A4DA9
S3150800319C0A4C641BA410A64205D170BD55F8043B15
S315080031AC98470136EEE755F8043B98470136F2E79F
S315080031BC1832000818320008183200081C320008A9
S315080031CC03460244934200D1704703F8011BF9E702
S315080031DCF8B500BFF8BC08BC9E467047F8B500BFEA
S30D080031ECF8BC08BC9E467047BA
S315080031F402030405060708090A0B0C0D0E0F101026
S3150800320400000000000000000000000001020304A2
S30908003214060708098A
S30908003218312100084A
S3090800321C0D2100086A
S3110800322001000000100000000024F4006B
S7050800214D84
