S01D000062696E2F6F70656E626C745F73746D3332663130332E7372656399
S315080000000050002099010008E1010008E1010008FC
S31508000010E1010008E1010008E10100080000000014
S31508000020000000000000000000000000E1010008D8
S31508000030E101000800000000E1010008E5150008DC
S31508000040E1010008E1010008E1010008E1010008FA
S31508000050E1010008E1010008E1010008E1010008EA
S31508000060E1010008E1010008E1010008E1010008DA
S31508000070E1010008E1010008E1010008E1010008CA
S31508000080E1010008E1010008E1010008E1010008BA
S31508000090E1010008E1010008E1010008E1010008AA
S315080000A0E1010008E1010008E1010008E10100089A
S315080000B0E1010008E1010008E1010008E10100088A
S315080000C0E1010008E1010008E1010008E10100087A
S315080000D0E1010008E1010008E1010008E10100086A
S315080000E0E1010008E1010008E10100080000000044
S315080000F000000000000000000000000000000000F2
S3110800010000000000000000005FF808F195
S3150800010C0348044B834202D0034B03B1184770478C
S3150800011C0C0000200C000020000000000548064BCF
S3150800012C1B1AD90F01EBA301491002D0034B03B1DB
S3150800013C184770470C0000200C0000200000000037
S3150800014C10B5064C237843B9FFF7DAFF044B13B105
S3150800015C0448AFF300800123237010BD1000002063
S3150800016C000000003016000808B5054B1BB1054900
S3150800017C0548AFF30080BDE80840FFF7CFBF00BFC6
S3150800018C00000000140000203016000800F021FEC4
S3150800019C0B480C490C4A002302E0D458C4500433CB
S315080001ACC4188C42F9D3094A094C002301E01360A0
S315080001BC0432A242FBD301F011FA00F00BFE704791
S315080001CC000000200C000020A816000810000020D3
S315080001DC30060020FEE70000184A10B5536803F0F5
S315080001EC0C03082B28D15368DB0341BF5368144909
S315080001FCC3F34043013348BFB1FBF3F1536858BF0F
S3150800020C1049C3F3834302334B43036051680E4CC6
S3150800021CC1F30311615C0D4CCB4043605168C1F3CB
S3150800022C0221615C23FA01F181605268C2F3C22291
S3150800023CA25CD340C36010BD014BE6E70010024038
S3150800024C00127A0000093D0086160008961600086A
S3150800025C054B82B09A6902439A619B6903400193E4
S3150800026C019B02B0704700BF00100240084B1B7878
S3150800027C022B0BD004D8012B14BF81200020704709
S3150800028C033B012B94BF0020812070470820704740
S3150800029C08000020FE22034B1A7002225870A3F89D
S315080002AC862070475C040020006870470B4B0C488E
S315080002BC5B6A028810B59B1A9BB2632B0DD9642115
S315080002CCB3FBF1F3074C2168194403EB830303EBE7
S315080002DC830302EB83022160028010BD002C0140CF
S315080002EC500000202406002038B50E4C0E4DFFF7A2
S315080002FCDDFF22682B689A420ED80C4B042118781D
S3150800030C0B4A50B9012018701161FFF7CFFF094B42
S3150800031C2A681B881344236038BD00201870516165
S3150800032CF3E700BF2C060020240600202A0600202E
S3150800033C000C014028060020F8B506460F4615465F
S3150800034C0024AC4200D1F8BD3B5D3355FFF7CCFF1A
S3150800035C0134F6E770B5094D094E6860FFF7A6FF3C
S3150800036C336803F10A042B681B0606D4FFF7BCFF97
S3150800037CFFF79CFF33689C42F5D270BD00380140EC
S3150800038C24060020F8B54CF25037224DFFF78EFFA5
S3150800039C214C2E68E368DB0733D4E3689F0644BF19
S315080003AC2023E360E368DE0606D4E369DD0703D49D
S315080003BCE06810F0040023D0174AD36813F0100332
S315080003CC05D01649CB6943F00203CB611023D268DA
S315080003DC500706D5114943F00403CA6942F00102D5
S315080003ECCA610D4AD169C90708D50C48C16941F0DB
S315080003FC0401C161D16921F00101D1610120D360E9
S3150800040CF8BDFFF753FF2B689B1BBB42C2D90320D1
S3150800041CF6E700BF2406002000200240300000202A
S3150800042C054B1A69120605D5044A5A6002F1883238
S3150800043C5A601B69704700BF0020024023016745BC
S3150800044C2DE9F84FFFF7ECFF80460025224E234C8A
S3150800045C434653F804AB53F80590FFF745FF337E34
S3150800046C012B26D001273776FFF78CFFF8B9F061F8
S3150800047C22691FFA89F33A4322612AF80530FFF7F5
S3150800048C81FF23690AEB050B23F00103236170B97D
S3150800049CF06122694FEA19433A432261ABF80230FC
S315080004ACFFF770FF236923F00103236118B10023BA
S315080004BC3376002009E05AF8053030764B45F8D1EA
S315080004CC0435B5F5007FC3D13846044A136943F0A1
S315080004DC80031361BDE8F88F30000020002002402D
S315080004EC38B50E4B044698420D4607D00C4A914235
S315080004FC12D0FFF7A5FF10B904460BE0094C236888
S3150800050C9D4207D020464FF40072294640F8045BFA
S3150800051CFFF712FF204638BD1C46F0E754000020B2
S3150800052C00200008580200202DE9F0411F460368F8
S3150800053C21F4FF76013304460D46904626F0010653
S3150800054C06D14FF40072314640F8046BFFF7F4FEFF
S3150800055C2368B34205D020463146FFF7C1FF04464F
S3150800056CE8B123680435ED1A254406F500764744A8
S3150800057CFFF7BAFE231DEB1AB3F5007F06D3204608
S3150800058C3146FFF7ADFF044648B1051D18F8013B87
S3150800059CB84505F8013BEBD10120BDE8F0810020F8
S315080005ACFBE7000030B40E4D4C1E0B46291A8C4244
S315080005BC12D80C4CA0420FD3411E1944A9420BD891
S315080005CC20F4FF7121F00101A142014630BC0CBF99
S315080005DC05480648FFF7A8BF002030BC704700BF87
S315080005ECFFFF0108002000085400002058020020D4
S315080005FC4FF47A72174B10B51B68B3FBF2F3013B39
S3150800060CB3F1807F25D24FF0E021F0224B61124BDB
S3150800061C072483F8232000220F288A610C6118D836
S3150800062CDB68C3F30223E11A042903F1040428BF87
S3150800063C0421062C88BFDA1E4FF0FF338B4020EAC4
S3150800064C030393401B01044ADBB282F82330034BA5
S3150800065C186010BD0400002000ED00E0000000202A
S3150800066C4B4AD2E900310B4491680B44D1680B44D0
S3150800067C11690B4451690B449169D2F80C210B444E
S3150800068CD34240F08480434B9A68D24312F400520A
S3150800069C7DD10421A3F5806359614FF0FF3103F531
S315080006AC823319611A61D960DA601A6842F001025C
S315080006BC1A601A689207FCD55A6822F003025A6027
S315080006CC5A6812F00C0FFBD11A6822F080721A6065
S315080006DC1A6812F00072FBD15A60196821F450217D
S315080006EC1960196821F0F80141F0800119609A60C7
S315080006FC596A41F080715962D96841F01001D96084
S3150800070CD96821F01001D960D96841F00801D9607F
S3150800071CD96821F00801D960D96841F00401D9607B
S3150800072CD96821F00401D960D96921F00071D96121
S3150800073C996921F480419961996921F010019961AF
S3150800074C996921F008019961996921F00401996167
S3150800075CD96921F08051D961996921F00101996112
S3150800076CD96841F40061D960D96821F40061D9606F
S3150800077C996921F4006199614FF0E0231A615A6175
S3150800078C9A61034B044A93605B6862B618477047D4
S3150800079C002000080010014000ED00E038B50C4BB5
S315080007AC93F8815095B90B4C2378012B0ED1FFF792
S315080007BC7DFD094B094A1B68126803F5FA739342C7
S315080007CC04D82570BDE83840FFF74ABF38BD00BFCE
S315080007DC5C040020EC040020E80400202406002019
S315080007EC2DE9F04FB54EB64C337889B0FF2B40F057
S315080007FC81800123002284F8813041F2FF0384F8BA
S3150800080C82202380A270FFF731FDE070FFF72EFDE2
S3150800081C40F20113E3800823A4F886304FF0FF3327
S3150800082C6271A84A20711360A74A136094F8843041
S3150800083C012B02D11020FFF72DFDB4F98650002D9F
S3150800084C40F313820127A14B84F884701E78022E7C
S3150800085C40F012829E4E96F8201032680139B94241
S3150800086C936800F2058213F0E05F00F0F781C3F39A
S3150800087C016398494FEA031C9F4002EB0313C3F824
S3150800088C80119DF81C10EDB2C3F88451012908BFDC
S3150800089CD3F88411624404BF41F48071C3F88411FF
S315080008AC6168DFF83482C2F88C112168BF06C2F879
S315080008BC8811D3F8802142F00102C3F88021FFF792
S315080008CCF5FCD8F8003003F1320596F82030013BD8
S315080008DC012B00F2C78133689B6837EA030300F0E3
S315080008ECC181FFF701FDFFF7E1FCD8F800309D4206
S315080008FCEBD2B7E194F88150012D40F0B681D22B9A
S3150800090C1ED8C82B01D8202044E0C93B092BFAD89D
S3150800091C01A252F823F000BF610A00081309000867
S3150800092C13090008750A00081309000813090008BA
S3150800093C630C00088F0A00086B0B0008550B00089F
S3150800094C03F10D02D2B20B2ADDD8F33B0B2BDAD806
S3150800095C01A252F823F000BFF3090008C9090008E0
S3150800096C95090008E109000813090008130900088D
S3150800097C13090008290A000813090008390A00088F
S3150800098C3D0A0008510A0008FFF770FC727890427D
S3150800099C03D82220FFF77EFC48E7D4F888104F4886
S315080009ACFFF7CAFCFF23D4F88820237073781A44FF
S315080009BCC4F888200133A4F8863037E7FFF756FCCD
S315080009CC72789042E5D94648FFF76EFC0146C4F8A2
S315080009DC8800E4E7FF2342482370FFF765FCC4F858
S315080009EC88000123E7E7FF233D482370FFF75CFCEB
S315080009FC0025D4F888608719BE4208D10023012245
S31508000A0C25716371E380627063800823D3E716F857
S31508000A1C013B1D44EDB2FFF767FCEDE7314BFF22B6
S31508000A2CC4F888300723C4E90023EEE70020B1E7B1
S31508000A3CFF23238094F88230A3700023E370A380ED
S31508000A4C0623B8E7002384F8813084F88230FF2324
S31508000A5C2370C6E7FFF70AFCD4F88850411E224AD1
S31508000A6C2846FFF79FFD08B9312093E7FF2323702B
S31508000A7CFFF7FCFBD4F8883001380344C4F88830F7
S31508000A8CAFE7FFF7F3FB71780138884281DDFF2366
S31508000A9C23700123A4F88630002947D10A4D2B6808
S31508000AAC013323D10748036801333FF4BFAEFFF780
S31508000ABCC7FC00287FF4BAAED6E700BFA305002012
S31508000ACC5C04002058020020540000200800002076
S31508000ADCF0040020000020FC240600205D04002001
S31508000AECA705002048160008A4050020D5E9013200
S31508000AFC1344EA68284613442A696B4913446A69FD
S31508000B0C1344AA691344EA6913445B42029302AA82
S31508000B1C0423FFF709FD0028A6D02B680133C1D0A2
S31508000B2C2846FFF78DFC0028BCD19DE75F4AD4F810
S31508000B3C8800FFF737FD002896D0D4F888307278ED
S31508000B4C1344C4F8883071E6FF2300222380A27070
S31508000B5CFFF78CFB0723E070A280A2712BE75448A1
S31508000B6CFFF7A2FBD4F888305249461ECA1A964299
S31508000B7C3FF67AAF504A23F47F7626F00306964260
S31508000B8CFFF472AF5A1E02448A423FF66DAF9B1BA6
S31508000B9C1844C0F38F28C0F3090018B108F10108EE
S31508000BAC1FFA88F8FFF73CFC4FF0000ADFF80CB187
S31508000BBCDFF80C9106F580661FFA8AF3984506D974
S31508000BCCFFF792FB9BF81830012B09D100253C4AFC
S31508000BDC136943F080031361002D7FF438AF43E7A4
S31508000BEC01278BF81870FFF7CDFB024670B938460B
S31508000BFCA6F58063B3420DD300230AF1010A8BF8DC
S31508000C0C183006F580660028D6D0DFE700238BF867
S31508000C1C1830DBE7CBF81C20D9F81010019241F0FC
S31508000C2C0201C9F81010C9F81430D9F8101000933D
S31508000C3C41F04001C9F81010FFF7A4FBD9F81010C1
S31508000C4C21F00201C9F810100028D5D1009B019A91
S31508000C5C03F58063CEE7FFF703FDF8E6736A43F402
S31508000C6C00137362002384F8843009B0BDE8F08F52
S31508000C7C736A43F48023F4E7002EF3D1EDB2812D89
S31508000C8C02D9FFF731FBFCE72846FFF763FB0D4F4C
S31508000C9CADB2B3B2AB42E5D2FFF726FB17F8010BA0
S31508000CACFFF758FB0136F4E70C210008A5050020D0
S31508000CBCA7050020FFFF01080020000830000020CF
S31508000CCC002002405C0400202DE9F04F0D68C5F3A6
S31508000CDC0F2595FAA5F20326B2FA82F204274FF0ED
S31508000CEC011C40F2011E35FA02F301D1BDE8F08F62
S31508000CFC012393402B426AD0072A88BFA2F1080326
S31508000D0CD1F804A08ABF0CFA03F30EFA02F343F0E7
S31508000D1C8063BAF1080F0ED1C4684FEA132898FA03
S31508000D2CA8F9B9FA89F924EA08080C6904FA09F445
S31508000D3C48EA0404C4604FEA136893FAA3F9B9FAAB
S31508000D4C89F993FAA3FB0F24BBFA8BFB4FEA8909A3
S31508000D5C04FA09F950F808404FEA8B0B24EA0909FA
S31508000D6C0AFA0BFA49EA0A0A40F808A04C6824F071
S31508000D7C0804012C2BD193FAA3F9B9FA89F993FA39
S31508000D8CA3F4B4FA84F44FEA890906FA09F92AEAAB
S31508000D9C09094FEA840A8C6804FA0AF449EA040435
S31508000DAC40F8084093FAA3F9B9FA89F993FAA3F328
S31508000DBCB3FA83F34FEA890907FA09F924EA090908
S31508000DCCCC689B009C4049EA040440F80840013270
S31508000DDC89E770472DE98048A14AA249136889B06A
S31508000DEC43F010031360CA689F4B22F4E0621204A6
S31508000DFC120C13439D4CCB600020FFF7F9FB012026
S31508000E0CFFF726FAE369042043F08053E361E369AC
S31508000E1C40F2044503F080530293029BFFF718FA3D
S31508000E2C0820FFF715FA1020FFF712FA4FF4804046
S31508000E3CFFF70EFAE369022743F00073E361E369EF
S31508000E4C03A903F000730193019B0123CDE9035316
S31508000E5C00234FF0040886480925CDE90573FFF7EA
S31508000E6C33FF0323834FC0F81480A0F58060CDE9C7
S31508000E7C03750593FFF728FF7F4BCDE90338FFF77A
S31508000E8C23FF0823DFF8F4C100F58060CDE903C31E
S31508000E9CFFF71AFFCDE90375FFF716FF784A794D68
S31508000EAC536823F0E06323F4C04343F0E06343F450
S31508000EBC80435360636803F00C03434507D06368AB
S31508000ECC03F00C03082B2DD16368D8032AD52368A5
S31508000EDC636803F00C03082B00F0B38000226A4BFE
S31508000EEC1A66FFF7E3F92F6823689A0100F1A180C7
S31508000EFC0122636823F400336360636823F4741374
S31508000F0C43F4E8136360604B1A66FFF7CFF92F6852
S31508000F1C23689B0116D4FFF7C9F92B68DB1B022B38
S31508000F2CF6D90FE0236843F480332360FFF7BEF944
S31508000F3C2F6823689903CBD4FFF7B8F92B68DB1B0A
S31508000F4C642BF6D9464A136813F0060F7BD06368F0
S31508000F5C43F4E0636360636843F4605363606368F7
S31508000F6C23F0F003636023689F0100F1A38072B637
S31508000F7C6422464B4FF400601A80FFF769F96368E0
S31508000F8C434AC3F3C223D35C424A01201168424A3E
S31508000F9CD9406368106013F4605F14BF0223012301
S31508000FAC4B433E494FF6FF70B3FBF1F30024013B6C
S31508000FBCD0629362536903A843F0010353612C6012
S31508000FCC526A374B4FF4FA781A804FF0FF33354A8A
S31508000FDC1360354A1360354BC3F88840A3F886402E
S31508000FEC83F88140A3F8824083F88440FFF7F4F82D
S31508000FFC4FF47A73059ADFF8B8C0B2FBF3FE9CF887
S3150800100C00109CF801000B1803FB0883BEFBF3F7D2
S3150800101C03FB17E22AB97B1E9BB2B3F5806FC0F0AF
S3150800102C5A820134122C0CF1020CE8D1FFF75CF948
S3150800103CFCE7FFF73BF92B68DB1B022B7FF654AF5B
S3150800104C80E763687EE7136823F0070343F002031F
S3150800105C1360136803F00703022B3FF478AF86E797
S3150800106C0020024000ED00E00003FA0500100240E3
S3150800107C000C0140020002040400040401000104EF
S3150800108C00000140240600200000424228060020E9
S3150800109C9616000804000020002C0140A0860100CA
S315080010AC5000002058020020540000205C04002048
S315080010BC6216000841F28838636823F0030343F08C
S315080010CC02036360FFF7F2F82F68636803F00C03FA
S315080010DC082B22D1AE4A136803F00703022B23D838
S315080010EC636823F4E06343F480636360636823F402
S315080010FC60536360626802F00C03082B21D0A54B81
S3150800110C6268A549C2F303128A5CD340A34A1360EA
S3150800111CA34B1868FFF76CFA29E7FFF7C7F82B6893
S3150800112CDB1B4345D1D922E7136823F0070343F0A9
S3150800113C02031360136803F00703022B7FF417AF3F
S3150800114CCEE79849C2F38343D003CB5C09D59149C2
S3150800115C62684B439449C2F340428A5CB3FBF2F390
S3150800116CCEE7924A5343CBE7FFF7A0F82B68DB1B75
S3150800117C0A2B40F2CA818E4B5A6A42F400325A62E2
S3150800118C05228B4F83F8202097F82030013B012B42
S3150800119C51D8884BD3F8002242F00102C3F800223A
S315080011ACD3F81C2222F00102C3F81C22D3F80C2215
S315080011BC42F00102C3F80C227F4AC3F8402202F11E
S315080011CC4C520432C3F84422D3F8042222F001020A
S315080011DCC3F80422D3F8142222F00102C3F814220D
S315080011ECD3F81C2242F00102C3F81C22D3F80022C1
S315080011FC22F00102C3F8002297F82030012B40F0A8
S3150800120CC28002236B4C87F82030236823F0010335
S3150800121C2360FFF74BF8D5F80080636813F00103D9
S3150800122C0ED17B621AE0FFF741F82B68DB1B0A2B01
S3150800123C40F277819FE77B6A43F480237B62DBE786
S3150800124CFFF734F82B68A3EB08030A2BE5D97B6A5E
S3150800125C43F400337B62052387F820300223574C6E
S3150800126CDFF85C812370D8F80C3023F40053C8F8E7
S3150800127C0C30D8F80C309B042ED4D8F80C3003A8B4
S3150800128C23F4B05323F00C0343F00C03C8F80C30CA
S3150800129CD8F8103023F44053C8F81030D8F8143066
S315080012AC23F44073C8F81430FEF796FF069B9BB1DF
S315080012BC192253434FF46132B3FBF2F36422B3FBA6
S315080012CCF2F102FB11331B013233B3FBF2F303EBDE
S315080012DC01139BB2C8F80830DFF8E4800122D8F86D
S315080012EC1030DFF8E09023F49043C8F81030D8F8A3
S315080012FC1430DFF8D4A023F02A03C8F81430D8F831
S3150800130C0C3043F40053C8F80C30002323702F4BD1
S3150800131C1A70FEF7CBFF2A682D4B1A60FFF73EFAB8
S3150800132CFEF7E2FFFEF7C2FF97F82030013B012BD0
S3150800133C00F2A4803B68DA68900751D17B6A43F4C3
S3150800134C00137B629AF800B0D8F80030BBF1000F96
S3150800135C40F098809B0613D5D8F804301D4ADBB2AA
S3150800136C1370013BDBB2802B0AD8FEF79FFF1A4B92
S3150800137C2A681A60194B83F800B001238AF80030E2
S3150800138CFFF70CFACCE77B6A43F4002349E700BF66
S3150800139C0020024000127A0086160008040000207D
S315080013AC00000020521600085016000800093D00DF
S315080013BCF0040020006400400000E0CC0800002087
S315080013CC00380140A3050020A2050020EC040020EB
S315080013DCE8040020200500201C0500201805002024
S315080013ECD3F8B02112F004020CBFD3F8B061D3F8CD
S315080013FCB011D3F8B011D3F8B41108BF760D09079C
S3150800140C58BFD3F8B411D3F8B411D3F8B411D3F830
S3150800141CB81189F80010D3F8B811090A89F801101F
S3150800142CD3F8B811090C89F80210D3F8B811090EBB
S3150800143C89F80310D3F8BC1189F80410D3F8BC1139
S3150800144C090A89F80510D3F8BC11090C89F8061095
S3150800145CD3F8BC11090E89F80710D96841F0200198
S3150800146CD96040F267639E427FF46CAF002A7FF422
S3150800147C69AF02232370FFF7B3F963E77B6A43F47A
S3150800148C80235EE713F0200B19D04E4A4E49137889
S3150800149CD8F804C0C8180133DBB213700A7880F880
S315080014AC01C09A427FF46CAF48460131FEF744FFFF
S315080014BC00238AF800302370FFF792F960E7FEF7ED
S315080014CCF5FE424B2A681B68C8339342BFF458AFE3
S315080014DC8AF800B054E74FF0807C3D4B0139C3E9DC
S315080014EC02229A83421E3B4C090412055F60C3F81C
S315080014FC18C019615A611C6093F82030236843F0B0
S3150800150C01032360FEF7D2FE2F686368D9077FF5BF
S3150800151C2BAE236823F002032360FEF7C7FE2D4C7F
S3150800152C2F6863689A073FF57EAE294B1A7E012A07
S3150800153C22680CBF42F0800222F0800222605A7E9A
S3150800154C012A244A11680CBF41F0400121F04001E0
S3150800155C11609A7E012A1F4A11680CBF41F02001BE
S3150800156C21F020011160DA7E012A1A4A11680CBF93
S3150800157C21F0100141F0100111601A7F012A154A59
S3150800158C11680CBF41F0080121F0080111605A7F5F
S3150800159C012A104A11680CBF41F0040121F004011C
S315080015AC1160D3E902210A4319690A4359690A43A6
S315080015BC596801390A430749CA6100225A6201224D
S315080015CCDFE500BF18050020200500201C050020BB
S315080015DCF0040020006400407047000070B5002637
S315080015EC0C4D0D4B5B1B9C10A64209D1002600F036
S315080015FC19F80A4D0A4B5B1B9C10A64205D170BD07
S3150800160C55F8043B98470136EEE755F8043B9847DE
S3150800161C0136F2E7A0160008A0160008A016000866
S3150800162CA4160008F8B500BFF8BC08BC9E4670475F
S3110800163CF8B500BFF8BC08BC9E46704715
S315080016484F70656E424C54000102020304050607F2
S3150800165808090A0B0C0D0E0F1010050206020603E0
S3150800166807030803090309040A040B040C040C05F8
S315080016780D050E050F050F061006100710080000C1
S31508001688000000000000010203040607080900001C
S30D08001698000001020304000032
S309080016A075010008BA
S309080016A44D010008DE
S311080016A8100000000024F40005000000FB
S7050800019958
