S01D000062696E2F6F70656E626C745F73746D3332663130332E7372656399
S315080000000050002099010008E1010008E1010008FC
S31508000010E1010008E1010008E10100080000000014
S31508000020000000000000000000000000E1010008D8
S31508000030E101000800000000E10100087D11000848
S31508000040E1010008E1010008E1010008E1010008FA
S31508000050E1010008E1010008E1010008E1010008EA
S31508000060E1010008E1010008E1010008E1010008DA
S31508000070E1010008E1010008E1010008E1010008CA
S31508000080E1010008E1010008E1010008E1010008BA
S31508000090E1010008E1010008E1010008E1010008AA
S315080000A0E1010008E1010008E1010008E10100089A
S315080000B0E1010008E1010008E1010008E10100088A
S315080000C0E1010008E1010008E1010008E10100087A
S315080000D0E1010008E1010008E1010008E10100086A
S315080000E0E1010008E1010008E10100080000000044
S315080000F000000000000000000000000000000000F2
S3110800010000000000000000005FF808F195
S3150800010C0348044B834202D0034B03B1184770478C
S3150800011C0C0000200C000020000000000548064BCF
S3150800012C1B1AD90F01EBA301491002D0034B03B1DB
S3150800013C184770470C0000200C0000200000000037
S3150800014C10B5064C237843B9FFF7DAFF044B13B105
S3150800015C0448AFF300800123237010BD1000002063
S3150800016C00000000C811000808B5054B1BB105496D
S3150800017C0548AFF30080BDE80840FFF7CFBF00BFC6
S3150800018C0000000014000020C811000800F06DFBE8
S3150800019C0B480C490C4A002302E0D458C4500433CB
S315080001ACC4188C42F9D3094A094C002301E01360A0
S315080001BC0432A242FBD300F0DDFF00F057FB704778
S315080001CC000000200C0000201C1200081000002063
S315080001DC04060020FEE70000054B82B09A6902432C
S315080001EC9A619B6903400193019B02B0704700BF5B
S315080001FC00100240084B1B78022B0BD004D8012B9D
S3150800020C14BF812000207047033B012B94BF0020AC
S3150800021C812070470820704708000020FE22034BF7
S3150800022C1A7002225870A3F886207047E80400203A
S3150800023C006870470B4B0C485B6A028810B59B1A12
S3150800024C9BB2632B0DD96421B3FBF1F3074C2168E0
S3150800025C194403EB830303EB830302EB830221604C
S3150800026C028010BD002C01402C000020F80500204F
S3150800027C38B50E4C0E4DFFF7DDFF22682B689A42F7
S3150800028C0ED80C4B042118780B4A50B9012018705B
S3150800029C1161FFF7CFFF094B2A681B8813442360AB
S315080002AC38BD002018705161F3E700BF0006002026
S315080002BCF8050020FE050020000C0140FC05002076
S315080002CCF8B506460F4615460024AC4200D1F8BDD3
S315080002DC3B5D3355FFF7CCFF0134F6E770B5094D96
S315080002EC094E6860FFF7A6FF336803F10A042B680A
S315080002FC1B0606D4FFF7BCFFFFF79CFF33689C422E
S3150800030CF5D270BD00380140F8050020F8B54CF25E
S3150800031C5037224DFFF78EFF214C2E68E368DB071A
S3150800032C33D4E3689F0644BF2023E360E368DE0604
S3150800033C06D4E369DD0703D4E06810F0040023D083
S3150800034C174AD36813F0100305D01649CB6943F046
S3150800035C0203CB611023D268500706D5114943F026
S3150800036C0403CA6942F00102CA610D4AD169C90778
S3150800037C08D50C48C16941F00401C161D16921F065
S3150800038C0101D1610120D360F8BDFFF753FF2B683B
S3150800039C9B1BBB42C2D90320F6E700BFF805002019
S315080003AC00200240C0000020054B1A69120605D52C
S315080003BC044A5A6002F188325A601B69704700BFBA
S315080003CC00200240230167452DE9F84FFFF7ECFFA3
S315080003DC80460025224E234C434653F804AB53F86B
S315080003EC0590FFF745FF337E012B26D0012737767C
S315080003FCFFF78CFFF8B9F06122691FFA89F33A43C3
S3150800040C22612AF80530FFF781FF23690AEB050BF1
S3150800041C23F00103236170B9F06122694FEA19438D
S3150800042C3A432261ABF80230FFF770FF236923F0D9
S3150800043C0103236118B100233376002009E05AF82A
S3150800044C053030764B45F8D10435B5F5007FC3D168
S3150800045C3846044A136943F080031361BDE8F88FE4
S3150800046CC00000200020024038B50E4B04469842C6
S3150800047C0D4607D00C4A914212D0FFF7A5FF10B9CA
S3150800048C04460BE0094C23689D4207D020464FF4DE
S3150800049C0072294640F8045BFFF712FF204638BD68
S315080004AC1C46F0E7E000002000200008E4020020CB
S315080004BC2DE9F0411F46036821F4FF760133044603
S315080004CC0D46904626F0010606D14FF400723146C9
S315080004DC40F8046BFFF7F4FE2368B34205D02046B8
S315080004EC3146FFF7C1FF0446E8B123680435ED1A17
S315080004FC254406F500764744FFF7BAFE231DEB1A8A
S3150800050CB3F5007F06D320463146FFF7ADFF044608
S3150800051C48B1051D18F8013BB84505F8013BEBD168
S3150800052C0120BDE8F0810020FBE7000030B40E4D39
S3150800053C4C1E0B46291A8C4212D80C4CA0420FD3CF
S3150800054C411E1944A9420BD820F4FF7121F0010170
S3150800055CA142014630BC0CBF05480648FFF7A8BFA8
S3150800056C002030BC704700BFFFFF010800200008C0
S3150800057CE0000020E40200204FF47A72174B10B505
S3150800058C1B68B3FBF2F3013BB3F1807F25D24FF026
S3150800059CE021F0224B61124B072483F8232000221A
S315080005AC0F288A610C6118D8DB68C3F30223E11A99
S315080005BC042903F1040428BF0421062C88BFDA1E7B
S315080005CC4FF0FF338B4020EA030393401B01044A88
S315080005DCDBB282F82330034B186010BD04000020F0
S315080005EC00ED00E000000020494AD2E900310B4436
S315080005FC91680B44D1680B4411690B4451690B443F
S3150800060C9169D2F80C210B44D3427FD1414B9A689D
S3150800061CD24312F4005279D10421A3F580635961AF
S3150800062C4FF0FF3103F5823319611A61D960DA602C
S3150800063C1A6842F001021A601A689207FCD55A68C1
S3150800064C22F003025A605A6812F00C0FFBD11A6892
S3150800065C22F080721A601A6812F00072FBD15A6086
S3150800066C196821F450211960196821F0F80141F034
S3150800067C800119609A60596A41F080715962D9688B
S3150800068C41F01001D960D96821F01001D960D968F8
S3150800069C41F00801D960D96821F00801D960D968F8
S315080006AC41F00401D960D96821F00401D96099692F
S315080006BC21F480419961996921F010019961996930
S315080006CC21F008019961996921F004019961D969A8
S315080006DC21F08051D961996921F001019961D96894
S315080006EC41F40061D960D96821F40061D96099692F
S315080006FC21F4006199614FF0E0231A615A619A61FD
S3150800070C034B054A93605B6862B61847704700BF8F
S3150800071C002000080010014000ED00E038B50C4B35
S3150800072C93F8815095B90B4C2378012B0ED1FFF712
S3150800073C81FD094B094A1B68126803F5FA73934243
S3150800074C04D82570BDE83840FFF74EBF38BD00BF4A
S3150800075CE80400203400002030000020F8050020B2
S3150800076C2DE9F04F0D68C5F30F2595FAA5F203266A
S3150800077CB2FA82F204274FF0011C40F2011E35FA38
S3150800078C02F301D1BDE8F08F012393402B426AD0C6
S3150800079C072A88BFA2F10803D1F804A08ABF0CFA6D
S315080007AC03F30EFA02F343F08063BAF1080F0ED185
S315080007BCC4684FEA132898FAA8F9B9FA89F924EA09
S315080007CC08080C6904FA09F448EA0404C4604FEAF8
S315080007DC136893FAA3F9B9FA89F993FAA3FB0F24C8
S315080007ECBBFA8BFB4FEA890904FA09F950F8084059
S315080007FC4FEA8B0B24EA09090AFA0BFA49EA0A0AA0
S3150800080C40F808A04C6824F00804012C2BD193FA64
S3150800081CA3F9B9FA89F993FAA3F4B4FA84F44FEA6A
S3150800082C890906FA09F92AEA09094FEA840A8C6839
S3150800083C04FA0AF449EA040440F8084093FAA3F9BE
S3150800084CB9FA89F993FAA3F3B3FA83F34FEA890948
S3150800085C07FA09F924EA0909CC689B009C4049EA7D
S3150800086C040440F80840013289E770472DE98048AE
S3150800087C414A424913688DB043F010031360CA68A5
S3150800088C3F4B22F4E0621204120C13433D4FCB602B
S3150800089C0020FFF771FE0120FFF79EFCFB69042080
S315080008AC43F08053FB61FB69022403F080530693E3
S315080008BC069BFFF791FC0820FFF78EFC1020FFF72C
S315080008CC8BFC4FF48040FFF787FC40F20440012371
S315080008DCCDE9070300232C4807A9CDE90943FFF7FF
S315080008EC3FFF04240923294D4461CDE9075303230B
S315080008FCA0F580600993FFF733FF254B254DCDE90D
S3150800090C0734FFF72DFF7B6803F00C03A34207D0CF
S3150800091C7B6803F00C03082B40D17B68D9033DD5C3
S3150800092C3B687B6803F00C03082B00F0308100222F
S3150800093C194B1A66FFF77EFC2C683B689B0100F185
S3150800094C1E8101227B6823F400337B607B6823F4C9
S3150800095C741343F4E8137B600F4B1A66FFF76AFCB3
S3150800096C2C683B689E0129D4FFF764FC2B681B1B7B
S3150800097C022BF6D922E000BF0020024000ED00E071
S3150800098C0003FA0500100240000C014002000204A4
S3150800099C04000404F8050020000042423B6843F4B6
S315080009AC80333B60FFF746FC2C683B689A03B8D447
S315080009BCFFF740FC2B681B1B642BF6D9A94A136856
S315080009CC13F0060F00F0E5807B6843F4E0637B6068
S315080009DC7B6843F460537B607B6823F0F0037B6091
S315080009EC3B68980100F1E28072B664229E4B4FF484
S315080009FC00601A80FFF7F0FB7B689C4A9C49C3F39E
S31508000A0CC2231068CB5C0124D8407B68994A13F43E
S31508000A1C605F14BF02230123434397481460B3FB5A
S31508000A2CF0F34FF6FF74013BD46293625369934C0F
S31508000A3C43F00103536100232B60506A904ADFF898
S31508000A4C44B210804FF0FF328F4EC4F8883084F8C9
S31508000A5C8130A4F8823084F88430A4F886308B4B25
S31508000A6CCBF800203260DA6822F40052DA60DA68D1
S31508000A7C920448D4DA6822F4B05222F00C0242F0FE
S31508000A8C0C02DA601A6922F440521A615A6922F485
S31508000A9C40725A617B6803F00C03082B40F0E08027
S31508000AAC7B68D80341BF7B68794AC3F3404301335B
S31508000ABC48BFB2FBF3F27B6858BF764AC3F383434D
S31508000ACC0233534378687A687A68734FC0F3031015
S31508000ADC385CC2F3C2228A5CC340D34013D01922B5
S31508000AEC53434FF46132B3FBF2F36422B3FBF2F1D6
S31508000AFC02FB11331B013233B3FBF2F3634A03EBEC
S31508000B0C01139BB29360614F644A3B6923F490438B
S31508000B1C3B617B6923F02A037B61FB6843F4005332
S31508000B2CFB600023137001225D4B1A70FFF782FBE2
S31508000B3C2A685C4B1A60FFF7F1FDFFF799FBFFF784
S31508000B4C79FB594B93F800803B68B8F1000F40F0DD
S31508000B5CB9809906EFD57B68544ADBB21370013B12
S31508000B6CDBB2802BE7D8FFF765FB2B68504A13607E
S31508000B7C504B4D4A83F8008001231370DBE7FFF7CF
S31508000B8C59FB2B681B1B022B7FF6D7AE16E77B6827
S31508000B9C14E7136823F0070343F002031360136882
S31508000BAC03F00703022B3FF40FAF1DE741F288361B
S31508000BBC7B6823F0030343F002037B60FFF73AFBE1
S31508000BCC2C687B6803F00C03082B22D1254A136882
S31508000BDC03F00703022B23D87B6823F4E06343F462
S31508000BEC80637B607B6823F460537B607A6802F0D1
S31508000BFC0C03082B21D0264B7A682749C2F303121B
S31508000C0C8A5CD340194A13602B4B1868FFF7B4FC5F
S31508000C1CEAE6FFF70FFB2B681B1BB342D1D9E3E6B9
S31508000C2C136823F0070343F002031360136803F0F9
S31508000C3C0703022B7FF4D8AECEE72049C2F38343D1
S31508000C4CCB5CD10309D512497A684B431C49C2F3CC
S31508000C5C40428A5CB3FBF2F3CEE70E4A5343CBE72A
S31508000C6C0B4B2FE700200240FC0500200400002057
S31508000C7C02120008002C0140A0860100E80400209E
S31508000C8C2C000020E4020020E0000020003801407F
S31508000C9C00127A0000093D00F21100080800002035
S31508000CAC3400002030000020BE0000203C0000204C
S31508000CBC380000203500002000000020E211000852
S31508000CCCE011000813F0200851D0C24AC249137823
S31508000CDCD7F804C0C8180133DBB213700A7880F849
S31508000CEC01C09A427FF427AFDFF8F0820131404603
S31508000CFCFFF7E6FA0022BA4B1A70BA4B1A7098F834
S31508000D0C0030FF2B40D1012384F8813041F2FF03D8
S31508000D1C84F882202380A270FFF76CFAE070FFF744
S31508000D2C69FA40F20113E3800823A4F886304FF0E1
S31508000D3CFF3320716271CBF80030336094F884303D
S31508000D4C012B02D11020FFF769FAB4F98690B9F194
S31508000D5C000F7FF7F0AE012384F88430A14B1B7883
S31508000D6C002B00F0D981002384F88430E3E6FFF7E2
S31508000D7C61FA9D4B2A681B68C8339342BFF4DBAEF5
S31508000D8C974B83F80080D6E694F88120012A0192C5
S31508000D9C7FF4D1AED22B1DD8C82B01D8202044E025
S31508000DACC93B092BFAD801A252F823F0030F000805
S31508000DBCA90D0008A90D0008170F0008A90D0008B1
S31508000DCCA90D00081F110008310F0008191000089A
S31508000DDCCB0F000803F10D02D2B20B2ADED8F33B77
S31508000DEC0B2BDBD801A252F823F000BF8D0E00089E
S31508000DFC610E0008290E00087B0E0008A90D0008D4
S31508000E0CA90D0008A90D0008CB0E0008A90D0008AD
S31508000E1CDB0E0008DF0E0008F30E0008FFF7EAF9F0
S31508000E2C98F80120904203D82220FFF7F7F985E7B6
S31508000E3CD4F888106D48FFF743FAFF23D4F88820B6
S31508000E4C237098F801301A44C4F888200133A4F8A2
S31508000E5C863073E7FFF7CEF998F801209042E3D96C
S31508000E6C6348FFF7E5F90146C4F88800E2E7FF2373
S31508000E7C5F482370FFF7DCF9C4F888000123E6E71E
S31508000E8CFF235B482370FFF7D3F94FF00008D4F81B
S31508000E9C889000EB090ACA4509D10023012284F877
S31508000EAC04806371E380627063800823CFE719F8C6
S31508000EBC013B98445FFA88F8FFF7DAF9EBE74D4BF4
S31508000ECCFF22C4F888300723C4E90023EDE7002085
S31508000EDCABE7FF23238094F88230A3700023E370DA
S31508000EECA3800623B3E7002384F8813084F8823084
S31508000EFCFF232370C2E7FFF77DF9D4F88880411EDB
S31508000F0C3D4A4046FFF712FB08B931208DE7FF230F
S31508000F1C2370FFF76FF9D4F8883001380344C4F806
S31508000F2C8830ABE7FFF766F998F801100138884264
S31508000F3C7FF77AAFFF2323700123A4F886300029A4
S31508000F4C2ED1336801330BD1DBF8003001333FF473
S31508000F5CF5AE2A48FFF738FA00287FF4EFAED4E747
S31508000F6CD6E901321344F2682549134432692548F7
S31508000F7C134472691344B2691344F26913445B420D
S31508000F8C079307AA0423FFF793FA0028BDD0336802
S31508000F9C0133D9D01B48FFF717FA0028D4D1B4E788
S31508000FAC194AD4F88800FFF7C1FA0028ADD0D4F84E
S31508000FBC883098F801201344C4F88830BEE6FF231D
S31508000FCC00222380A270FFF715F90723E070A28090
S31508000FDCA2713CE7350000203C0000207405002077
S31508000FECBE0000200800002038000020E90400207C
S31508000FFC780500200A12000875050020E402002076
S3150800100C0C210008E0000020760500205248FFF766
S3150800101C0FF9D4F88830514900F1FF3CCA1A9445A7
S3150800102C3FF673AF4E4A23F47F7828F003089045B1
S3150800103CFFF46BAF5A1E02448A423FF666AFA3EB27
S3150800104C08031844C0F38F23C0F30900029310B1A8
S3150800105C01339BB20293FFF7A7F90023DFF804913B
S3150800106CDFF804A108F580680393BDF80C10029B01
S3150800107C994207D2FFF7FCF899F8181001290BD1F9
S3150800108C00230193384A136943F080031361019BCB
S3150800109C002B7FF42DAF38E7012289F81820FFF7CB
S315080010AC35F9034680B901221046A8F580618845B2
S315080010BC0ED80021039B89F818100133039308F501
S315080010CC80680028D1D0DBE7002389F81830D7E7E9
S315080010DCC9F81C30DAF81000059340F00200CAF87B
S315080010EC1000CAF81410DAF81000049140F0400009
S315080010FCCAF81000FFF70AF9DAF8102022F00202F3
S3150800110CCAF810200028D4D10499059B01F58061F2
S3150800111CCDE7FFF769FAEBE65FFA89F9B9F1810FC2
S3150800112C02D9FFF7A5F8FCE748460193DFF83C809F
S3150800113CFFF7D4F8019B1FFA89F99AB24A45BFF40E
S3150800114C12AE0193FFF794F818F8010BFFF7C6F8DF
S3150800115C019B0133F1E700BF78050020FFFF01086A
S3150800116C00200008C000002000200240E8040020EF
S3150800117C7047000070B500260C4D0D4B5B1B9C1080
S3150800118CA64209D1002600F019F80A4D0A4B5B1B3A
S3150800119C9C10A64205D170BD55F8043B98470136FC
S315080011ACEEE755F8043B98470136F2E714120008A7
S315080011BC141200081412000818120008F8B500BF1B
S315080011CCF8BC08BC9E467047F8B500BFF8BC08BC0E
S309080011DC9E46704766
S315080011E0010202030405060708090A0B0C0D0E0F77
S315080011F010100000000000000000010203040607AA
S31508001200080900000000010203044F70656E424C95
S309080012105400000078
S30908001214750100084A
S309080012184D0100086E
S3110800121C100000000024F400050000008B
S7050800019958
