S01D000062696E2F6F70656E626C745F73746D3332663130332E7372656399
S31508000000005000204D0100089501000895010008E0
S3150800001095010008950100089501000800000000F8
S315080000200000000000000000000000009501000824
S3150800003095010008000000009501000885130008D6
S31508000040950100089501000895010008950100082A
S31508000050950100089501000895010008950100081A
S31508000060950100089501000895010008950100080A
S3150800007095010008950100089501000895010008FA
S3150800008095010008950100089501000895010008EA
S3150800009095010008950100089501000895010008DA
S315080000A095010008950100089501000895010008CA
S315080000B095010008950100089501000895010008BA
S315080000C095010008950100089501000895010008AA
S315080000D0950100089501000895010008950100089A
S315080000E09501000895010008950100080000000028
S315080000F000000000000000000000000000000000F2
S3110800010000000000000000005FF808F195
S3150800010C10B5054C237833B9044B13B10448AFF337
S3150800011C00800123237010BD100000200000000091
S3150800012CC01E000808B5034B1BB103490348AFF3BF
S3150800013C008008BD0000000014000020C01E000846
S3150800014C01F024F80B480C490C4A002302E0D45859
S3150800015CC4500433C4188C42F9D3094A094C0023F9
S3150800016C01E013600432A242FBD301F077FE01F0E2
S3150800017C1DF870470000002010000020881F00089A
S3150800018C1000002034060020FEE7000008B5054BD9
S3150800019C9B689B0403D500F035F8012008BD0020A8
S315080001ACFCE700BF00100140642000F003B800F023
S315080001BC07B80000014B1880704700BF2C000020C0
S315080001CC10B501F037FE0B4C236898420DD30A4B39
S315080001DC04211878094A48B901201870116101F0F0
S315080001EC29FE074B1B880344236010BD002018709A
S315080001FC5161F4E7300000202E000020000C01406D
S3150800020C2C0000200422014B5A617047000C014057
S3150800021C10B54FF0FF320024044B1A611C61DA60EA
S3150800022CDC6001F077F8204610BD00BF00100240D4
S3150800023C38B50E4B054618784FF47A73B3FBF0F3C2
S3150800024C0B4A1068B0FBF3F000F05CFA044658B998
S3150800025C0F2D09D8024629464FF0FF3000F020FA38
S3150800026C2046044B1D6038BD0120FCE70000002029
S3150800027C0800002004000020074A08B5136803206C
S3150800028C43F01003136000F0F9F90020FFF7D0FFD4
S3150800029C00F0BCFF002008BD00200240704738B5AE
S315080002AC044600286ED090F820300BB9FFF7F6FFFD
S315080002BC2268136843F00103136001F0C3FD054679
S315080002CC23685A68D10751D51A6822F002021A60B7
S315080002DC01F0B8FD054623685A68920754D4227E65
S315080002EC0020012A1A680CBF42F0800222F0800214
S315080002FC1A60627E012A1A680CBF42F0400222F08C
S3150800030C40021A60A27E012A1A680CBF42F020022B
S3150800031C22F020021A60E27E012A1A680CBF22F02B
S3150800032C100242F010021A60227F012A1A680CBFCA
S3150800033C42F0080222F008021A60627F012A1A6843
S3150800034C0CBF42F0040222F004021A60D4E902211E
S3150800035C0A4321690A4361690A43616801390A43F8
S3150800036CDA610123606284F8203038BD01F06AFD39
S3150800037C401B0A28A4D9636A43F400336362052335
S3150800038C84F820300120F0E701F05CFD401B0A28B8
S3150800039CA1D9F0E770B590F82030013B012B62D853
S315080003AC01240368D3F8002242F00102C3F80022A4
S315080003BC4A69D3F81C5202F01F0004FA00F025EA29
S315080003CC0005C3F81C52CD69C44385BBD3F80C523F
S315080003DCCE682540C3F80C528D8803EBC20245EA59
S315080003EC0645C2F840528E680D8845EA0645C2F89D
S315080003FC44528A696ABBD3F804222240C3F8042201
S3150800040C0A6952BBD3F814221440C3F814420A6A78
S3150800041C012A02BFD3F81C221043C3F81C02002081
S3150800042CD3F8002222F00102C3F8002270BD012D78
S3150800043CDFD1D3F80C520E680543C3F80C528D88DD
S3150800044C03EBC20245EA0645C2F840528E688D890E
S3150800045CCBE7D3F804220243D0E7D3F8142202439D
S3150800046CC3F81422D3E7436A43F48023436201207A
S3150800047CDCE770B590F820300446012BDDB220D1AC
S3150800048C0223026880F82030136823F001031360F6
S3150800049C01F0D8FC064623685B6813F0010302D109
S315080004AC1D4663620BE001F0CDFC801B0A28F2D9CD
S315080004BC636A43F400336362052384F820302846C4
S315080004CC70BD436A012543F400234362F7E7F0B590
S315080004DC054690F820002E6801380128B4683AD8E9
S315080004EC14F0E05F4FF0010030D0C4F30164A04073
S315080004FC1860D1E9020704F1180310BB086847EA2B
S3150800050C40501B01F050200106EB04130644002052
S3150800051C0D69C3F88451097D012902BFD3F88411EA
S3150800052C41F48071C3F884115168C6F88C111268AD
S3150800053CC6F88821D3F8802142F00102C3F880213D
S3150800054CF0BD4D68384340EAC500DAE76B6A43F4F8
S3150800055C00136B62F4E76B6A012043F480236B6229
S3150800056CEEE790F82030013B012B09D803689B680D
S3150800057C03EA8163B3EB816F14BF01200020704737
S3150800058C00207047F0B590F82040013C012C71D83A
S3150800059C066841B9F468A40707D1436A43F4001303
S315080005AC436201205BE03469F5E706EB0115D5F8E3
S315080005BCB0710C0107F004079760002F50D1D5F8DD
S315080005CCB0717F0D1760D5F8B071264407F0020795
S315080005DCD760D5F8B4713F074EBF0827D5F8B47164
S315080005EC07F00F071761D5F8B471D5F8B451C7F3EE
S315080005FC07272D0C97615561D6F8B8211A70026831
S3150800060C2244D2F8B821120A5A7002682244D2F847
S3150800061CB821120C9A7002682244D2F8B821120E2C
S3150800062CDA7002682244D2F8BC211A710268224494
S3150800063CD2F8BC21120A5A7102682244D2F8BC219B
S3150800064C120C9A7102682244D2F8BC21120EDA7185
S3150800065C036851B9DA6842F02002DA600020F0BD6E
S3150800066CD5F8B071FF085760ADE71A6942F0200259
S3150800067C1A61F3E7436A43F4802391E707490302B7
S3150800068CCA6803F4E06322F4E0621204120C134302
S3150800069C43F0BF6343F40033CB60704700ED00E0D2
S315080006AC164B30B5DC68C4F30224C4F10703251DC8
S315080006BC042B28BF0423062D4FF0FF3598BF0024C2
S315080006CC05FA03F388BF033C21EA0303A34005FAA2
S315080006DC04F422EA0402002843EA0203ACBF00F140
S315080006EC6040074A4FEA0313DBB2ABBF00F5614023
S315080006FC00F00F0080F80033135430BD00ED00E015
S3150800070C14ED00E00138B0F1807F0BD24FF0E023F6
S3150800071CF021054A586182F82310002007229861B7
S3150800072C1A6170470120704700ED00E0114AD36842
S3150800073C13F0100305D01049CB6943F00203CB61C3
S3150800074C1023D268500706D50B4943F00403CA692F
S3150800075C42F00102CA61074AD169C90708D5064899
S3150800076CC16941F00401C161D16921F00101D1616E
S3150800077CD36070470020024038000020064B1869E9
S3150800078C10F0800007D0054A5A6002F188325A6088
S3150800079C1869C0F3C0107047002002402301674552
S315080007AC034A0020136943F080031361704700BFA6
S315080007BC0020024070B5054601F044FB0646114C74
S315080007CCE368D80712D4E368990644BF2023E3608C
S315080007DCE368DA0606D4E369DB0703D4E06810F0AD
S315080007EC040007D0FFF7A2FF012003E06B1CE7D03B
S315080007FC0DB9032070BD01F025FB801BA842DFD97B
S3150800080CF7E700BF002002402DE9F84FDFF890907B
S3150800081C1E4699F818300446012B0F4690463DD0D3
S3150800082C01234CF2503089F81830FFF7C3FF80BB10
S3150800083C012C03D0022C0CBF022404240025AB4641
S3150800084CDFF860A02801C0F12002A0F1200306FA07
S3150800085C02F228FA00F0C9F81CB0104326FA03F382
S3150800086C1843DAF8103080B243F00103CAF8103096
S3150800087C27F815004CF25030FFF79CFFDAF81030C9
S3150800088C23F00103CAF8103018B90135EBB29C42B3
S3150800089CD8D8002389F81830BDE8F88F0220FBE772
S315080008AC38000020002002400022064BDA61064B75
S315080008BC1A6942F002021A6158611A6942F040023A
S315080008CC1A61704738000020002002402DE9F041DB
S315080008DC264F05463B7E8846012B44D001243C76A0
S315080008EC03684CF25030022B1AD1FFF763FF20B184
S315080008FC012000233B76BDE8F0811D4CF861236985
S3150800090C4CF2503043F004032361236943F040034F
S3150800091C2361FFF74FFF236923F004032361E8E7FC
S3150800092CFFF748FF0028E3D14FF0FF33C8F8003033
S3150800093C2046AE680E4CD5E9023203EB8223B3424D
S3150800094CD7D93046FFF7B0FF4CF25030FFF732FFDD
S3150800095C236923F00203236110B1C8F80060C8E7C5
S3150800096C06F58066E7E70220C5E700BF38000020D9
S3150800097C002002402DE9F341054638B30368DB072E
S3150800098C10D42B689F075ED42B68190700F1958045
S3150800099C2B685A0700F1C180E869002840F02C81C1
S315080009AC002029E0904C636803F00C03042B07D055
S315080009BC636803F00C03082B0AD16368DE0307D5BA
S315080009CC23689C03DDD56B68002BDAD1012013E074
S315080009DC6B68B3F5803F12D1236843F480332360E8
S315080009EC01F030FA064623689803CAD401F02AFAAD
S315080009FC801B6428F7D9032002B0BDE8F0819BB9A7
S31508000A0C236823F480332360236823F4802323602C
S31508000A1C01F018FA064623689903B2D501F012FAC2
S31508000A2C801B6428F7D9E6E7B3F5A02F236803D112
S31508000A3C43F480232360CFE723F4803323602368B1
S31508000A4C23F48023CBE7684C636813F00C0F07D0AC
S31508000A5C636803F00C03082B10D16368DA030DD412
S31508000A6C23689B0702D52B69012BAFD123686A69CA
S31508000A7C23F0F80343EAC203236085E72A695B4B34
S31508000A8C6AB101221A6001F0DDF9064623689F0750
S31508000A9CECD401F0D7F9801B0228F7D9ABE71A601A
S31508000AAC01F0D0F90646236898077FF56DAF01F07B
S31508000ABCC9F9801B0228F6D99DE7AA694A4E4B4B01
S31508000ACCE2B10122C3F8802401F0BCF90446736A2A
S31508000ADC9B070DD54FF4FA52454B1B68B3FBF2F343
S31508000AEC019300BF019B5A1E0192002BF9D14FE7C7
S31508000AFC01F0A8F9001B0228E9D97CE7C3F8802481
S31508000B0C01F0A0F90446736A9F077FF541AF01F01F
S31508000B1C99F9001B0228F6D96DE7334CE369D8001E
S31508000B2C24D40127E36943F08053E361E36903F0B6
S31508000B3C80530093009B2F4E3368D90518D5EB6864
S31508000B4C012B26D1236A43F00103236201F07AF9BB
S31508000B5C41F288380646236A9B073FD5002F3FF497
S31508000B6C1BAFE36923F08053E36115E70027E2E73F
S31508000B7C336843F48073336001F064F98046336854
S31508000B8CDA05DCD401F05EF9A0EB08006428F6D986
S31508000B9C31E7ABB9236A41F2883823F001032362A3
S31508000BAC236A23F00403236201F04CF90646236AF0
S31508000BBC9807D3D501F046F9801B4045F7D91AE7B3
S31508000BCC052B236A03D143F004032362BAE723F007
S31508000BDC01032362236A23F00403B6E701F032F912
S31508000BEC801B4045B7D906E7001002400000424278
S31508000BFC08000020007000402A4C636803F00C03C0
S31508000C0C082B3ED00022284B02281A662CD101F05C
S31508000C1C19F906462368990120D42B6AB3F5803F47
S31508000C2C05D16268A96822F400320A436260696ACF
S31508000C3C62680B4322F474121343012263601A4B45
S31508000C4C1A6601F0FFF8054623689A013FF5A8AE27
S31508000C5C01F0F8F8401B0228F6D9CCE601F0F2F8B8
S31508000C6C801B0228D6D9C6E601F0ECF8054623689F
S31508000C7C9B017FF595AE01F0E5F8401B0228F6D9E5
S31508000C8CB9E601283FF4B8AE63682A6A03F48031E2
S31508000C9C91427FF49BAE6A6A03F4701393423FF455
S31508000CAC7FAE93E600100240000042420D4A53689C
S31508000CBC03F00C01082912D10B48C3F38341DB035B
S31508000CCC405C09D55368094AC3F340435043084A64
S31508000CDCD35CB0FBF3F07047064B58437047034898
S31508000CEC704700BF00100240D81E000800127A0098
S31508000CFCE81E000800093D002DE9F0410D460446A2
S31508000D0C10B90120BDE8F081444A136803F00703C3
S31508000D1C8B4228D321688E0730D4CA0743D43F4A5E
S31508000D2C136803F00703AB4265D822683C4D12F0F2
S31508000D3C040F6CD1130706D56B68226923F460532C
S31508000D4C43EAC2036B60FFF7B1FF6B68354AC3F31E
S31508000D5C0313D35CD840344B1860344B1868FFF730
S31508000D6C67FA0020CEE7136823F007030B431360DA
S31508000D7C136803F007038B42C3D1CBE7284B11F05A
S31508000D8C040F1EBF5A6842F4E0625A60080742BF55
S31508000D9C5A6842F460525A605A68A06822F0F00207
S31508000DAC02435A60B9E762681D4E012A33681AD1A4
S31508000DBC13F4003FA5D0736841F2883823F0030377
S31508000DCC1343736001F03EF807467368626803F0D4
S31508000DDC0C03B3EB820FA2D001F034F8C01B4045CC
S31508000DECF3D903208EE7022A02D113F0007FE1E73C
S31508000DFC13F0020FDEE7136823F007032B43136087
S31508000E0C136803F00703AB427FF47BAF8DE76B687F
S31508000E1CE16823F4E0630B436B608BE70020024028
S31508000E2C00100240EA1E00080800002004000020FA
S31508000E3C224B98420BD103F58433DA6842F004024C
S31508000E4CDA60DA6822F004020020DA6070471C4B7C
S31508000E5C984209D103F58233DA6842F00802DA605F
S31508000E6CDA6822F00802EFE7164B984209D103F527
S31508000E7C8033DA6842F01002DA60DA6822F010027F
S31508000E8CE2E7114B984209D103F57C43DA6842F044
S31508000E9C2002DA60DA6822F02002D5E70B4B98427A
S31508000EAC09D103F57843DA6842F04002DA60DA6869
S31508000EBC22F04002C8E70120704700BF0008014035
S31508000ECC000C0140001001400014014000180140BC
S31508000EDC2DE9F04F0D680446C5F30F2595FAA5F2D2
S31508000EEC0327B2FA82F24FF0040C4FF0011E40F2BF
S31508000EFC011835FA02F001D1BDE8F08F01239340B1
S31508000F0C2B4266D0072A88BFA2F10803D1F804A0A1
S31508000F1C8ABF0EFA03F308FA02F343F08063BAF1B8
S31508000F2C080F0CD1E668180A90FAA0F9B9FA89F9EB
S31508000F3C26EA0006086900FA09F00643E6604FEA55
S31508000F4C136993FAA3F6B6FA86F693FAA3FB0F205F
S31508000F5CBBFA8BFBB60000FA06F654F809004FEA02
S31508000F6C8B0B20EA06060AFA0BFB46EA0B0644F834
S31508000F7C0960486820F0080001282AD193FAA3F0E2
S31508000F8CB0FA80F093FAA3FBBBFA8BFB800007FA46
S31508000F9C00F026EA000688684FEA8B0B00FA0BFB72
S31508000FAC46EA0B0644F8096093FAA3FABAFA8AFADF
S31508000FBC93FAA3F3B3FA83F34FEA8A0A0CFA0AFAFA
S31508000FCC26EA0A0ACE689B009E404AEA060644F8B8
S31508000FDC096001328DE70000144B1A6842F00102D1
S31508000FEC1A601A689207FCD55A6822F003025A60EE
S31508000FFC5A6812F00C0FFBD11A6822F080721A602C
S3150800100C186810F00070FBD158601A6822F4502248
S3150800101C1A601A6822F0F80242F080021A60986088
S3150800102C5A6A42F080725A62704700BF001002403A
S3150800103C034B044A5B68C3F30313D35CD84070476D
S3150800104C00100240EA1E0008034B044A5B68C3F30F
S3150800105C0223D35CD840704700100240FA1E0008E1
S3150800106C034B044A5B68C3F3C223D35CD84070476E
S3150800107C00100240FA1E0008094A5368DB0341BFF8
S3150800108C5068084BC0F34040013048BFB3FBF0F042
S3150800109C536858BF0448C3F3834302335843704715
S315080010AC0010024000127A0000093D00044B5B68F0
S315080010BC03F00C03082B01D1FFF7DEBF014870477C
S315080010CC0010024000127A0008B50146FFF7EEFF41
S315080010DC0860FFF7ADFF4860FFF7B6FF8860486801
S315080010ECFFF7BEFFC86008BD30B5C36804469B044D
S315080010FC0D4685B002D5012005B030BD4B68C968D0
S3150800110CC2680B43296922F4B0520B4322F00C0235
S3150800111C1343C3600369AA6823F44053134303615A
S3150800112C43696A6923F44073134343616846FFF7BE
S3150800113CCBFF134B9C4219D1039B002BDBD02A689F
S3150800114C002AD8D019214B439200B3FBF2F3642240
S3150800115CB3FBF2F102FB11331B013233B3FBF2F38F
S3150800116C03EB01139BB20020A360C5E7054B9C4219
S3150800117C01D1029BE1E7044B9C42BCD1F9E700BFC5
S3150800118C0038014000440040004800407047000009
S3150800119C054B82B09A6902439A619B691840019083
S315080011AC019B02B0704700BF0010024000B591B019
S315080011BCFFF762F81422002108A800F073FE00213C
S315080011CC142201A800F06EFE022401224FF480338B
S315080011DCCDE90623CDE90D434FF4E01306A80A9290
S315080011EC0F93FFF7C7FB0F234FF48062CDE9013449
S315080011FC0023214601A8CDE903320593FFF77CFDB0
S3150800120C00F0FCF800F009F9FCE700002DE9F047BE
S3150800121C374988B00120FFF7BBFFCB69042043F0A0
S3150800122C8053CB61CB69002503F080530293029B54
S3150800123CFFF7AEFF0820FFF7ABFF1020FFF7A8FF5C
S3150800124C4FF48040FFF7A4FFCB6940F2044243F009
S3150800125C0073CB61CB69042603F000730193019BE1
S3150800126C0123CDE9032302234FF009080327214C58
S3150800127C03A92046CDE90535DFF87CA0FFF728FE43
S3150800128C1E4BDFF87C90666103A91E48CDE9033630
S3150800129CFFF71EFE03A95046CDE90398CDE905755F
S315080012ACFFF716FE184B03A95046CDE90336FFF790
S315080012BC0FFE082315492046CDE9031303A9FFF7AA
S315080012CC07FE204603A9CDE90398CDE90575FFF776
S315080012DCFFFD0F4A536823F0E06323F4C04343F041
S315080012ECE06343F48043536008B0BDE8F08700BF61
S315080012FC00100240000C01400008014020002004A8
S3150800130C0200020400100140040004040100010458
S3150800131C0000014008B5FFF75FFE1348FFF788FD8C
S3150800132C1248FFF785FD1248FFF782FD114BDA6963
S3150800133C22F00072DA619A6922F480429A619A69FB
S3150800134C22F010029A619A6922F008029A619A6947
S3150800135C22F004029A61DA6922F08052DA619A69FB
S3150800136C22F001029A6108BD00100140000C0140F0
S3150800137C0008014000100240704708B500F0BFF89D
S3150800138CFCE7000010B500F0B1F8012814D00B4C9E
S3150800139C2378012B10D100F04DFD094B094A1B6827
S315080013AC1268134403F5FA73984205D30023237085
S315080013BCBDE8104000F092BA10BD00BF5C000020DA
S315080013CC580000206000002008B5044B1B78012B40
S315080013DC03D100F02FFD024B186008BD5C000020FD
S315080013EC60000020012208B5034B1A70FFF7ECFFCA
S315080013FCBDE80840FFF7C6BF5C00002008B500F042
S3150800140C6BFA00F07AF800F0A1FC00F0EDFB00F0A6
S3150800141C0FF8BDE80840FFF7E5BF08B500F06FF810
S3150800142C00F0EAFC00F014F8BDE80840FFF7AABF84
S3150800143C10B500F073F800F0B1F90223034C2370D1
S3150800144C00F0FAFB0023237010BD00BF0C0000202F
S3150800145C07B510480DF1070100F024FA012807D149
S3150800146C02220D4B9DF807100A481A7000F078F8FE
S3150800147C08480DF1070100F01FFC012807D10022CE
S3150800148C054B9DF8071003481A7000F069F803B06D
S3150800149C5DF804FB640000200C0000207047000077
S315080014AC70B5094E054633780C46022B02D1C9B2E3
S315080014BC00F0D4F933781BB92846E1B200F0E2FB08
S315080014CCBDE8704000F044B80C000020044B1B78B3
S315080014DC013BDBB2032B9ABF024AD05C81207047D2
S315080014EC0C000020021F0008FFF7F0BF08B500F03B
S315080014FC25F8003818BF012008BDFEF755BEFEF7C3
S3150800150C56BE0000FE22034B1A7002225870A3F82E
S3150800151C86207047E8000020006870470022064BBA
S3150800152CC3F88820A3F8862083F88120A3F88220A4
S3150800153C83F88420704700BFE8000020034B93F81B
S3150800154C8100003818BF0120704700BFE800002052
S3150800155C0022024B83F88420704700BFE800002065
S3150800156CF8B503780546FF2B894C30D101220023A8
S3150800157C84F8812041F2FF0284F88230A37022801D
S3150800158CFFF7A4FFE070FFF7AFFF2071FFF7ACFF82
S3150800159C40F20113E3800823000A6071A4F8863030
S315080015AC00F022FB94F88430012B02D11020FFF7AF
S315080015BCA9FFB4F98610002940F3E9800123744881
S315080015CC84F8843089B2BDE8F840FFF769BF94F80F
S315080015DC8120012A40F0DB80D22B16D8C82B19D9CA
S315080015ECC93B092B16D8DFE803F07F1515891515A5
S315080015FCCF96C3B8F33B0B2B0CD8DFE803F03E2889
S3150800160C0D350B0B0B590B61636D03F10D02D2B241
S3150800161C0B2AEFD9202005E0FFF758FF6A7890428D
S3150800162C03D82220FFF76EFFBCE7D4F88810594878
S3150800163C00F076F9FF236A782370D4F888301344BF
S3150800164CC4F888306B780133A4F88630AAE7FFF71C
S3150800165C3DFF6B788342E4D2281DFFF75DFFC4F883
S3150800166C880001466A78E2E7FF23281D2370FFF7F6
S3150800167C53FFC4F888000123E6E7FF23281D2370CF
S3150800168CFFF74AFF0025D4F888608719BE4208D1AF
S3150800169C0023012225716371E3806270638008233D
S315080016ACD2E716F8013B1D44EDB2FFF728FFEDE72C
S315080016BC394BFF22C4F888300723C4E90023EEE728
S315080016CC0020AFE7FF23238094F88230A370002311
S315080016DCE370A3800623B7E7002384F8813084F8E7
S315080016EC8230FF232370C6E7D4F88860FFF7EEFE36
S315080016FC6A1C411E304600F079FA08B9312091E788
S3150800170CFF232370FFF7E2FED4F888300138034430
S3150800171CC4F88830AFE7FFF7D9FE6B7801389842E2
S3150800172C7FF77FAFFF2323700123A4F886306978EF
S3150800173C29B900F063FA00287FF434AFDEE7D4F851
S3150800174C8800AA1C00F052FA0028D7D06A78D4F878
S3150800175C88301344C4F8883024E7FF2300252380F7
S3150800176CA570FFF7B3FE0723E070A580A5716BE79C
S3150800177C0430FFF7D1FED4F888300146184600F03D
S3150800178C37FA0028ADD1B9E700F0A8F8A9E7F8BDF3
S3150800179CE8000020E9000020061F0008F0B58BB011
S315080017AC6846FFF791FC4FF47A730020029D0646B3
S315080017BCB5FBF3F54FF4FA77244C22786378D118F5
S315080017CC01FB0771B5FBF1FC01FB1C5129B91FFA8A
S315080017DC8CF6711EB1F5806F0AD30130122804F10C
S315080017EC0204EAD1B4211A48FFF7C7FD00231A46AA
S315080017FC184C1949002521604FF08071013A013BBC
S3150800180CA16112041B052046A583226163616660EB
S3150800181CC4E90255FEF743FD01234CF6E042079353
S3150800182CCDE90025089304220E234FF6E076694687
S3150800183C2046CDE902620993CDE905550495FEF7D4
S3150800184CA9FD2046FEF715FE0BB0F0BD331F0008A8
S3150800185C0E1F0008740100200064004040F2E1737A
S3150800186C30B589B0029300230246CDE904330691BC
S3150800187C0B4801AB02A9FEF72AFE78B900F0DAFA92
S3150800188C074D00F1320428460199FEF76AFE28B185
S3150800189CFFF735FE00F0CEFAA042F4D909B030BDF8
S315080018AC7401002010B588B003460C46094800217F
S315080018BC01AAFEF767FE58B940F26763019A9A4285
S315080018CC04D1039B13B90120059B237008B010BDE6
S315080018DC0020FBE77401002000F0BCBA10B500F03C
S315080018EC89F9C8B1FEF752FCB0B1FFF7D7FDFEF780
S315080018FC8FFC00F06BFA00F07FF9084B20F0604083
S3150800190C20F07F00986000F077F9446800F0A4FA9C
S3150800191C2346BDE81040184710BD00BF00ED00E097
S3150800192CF8B506460F4615460024AC4200D1F8BD5C
S3150800193C3B5D3355FFF7E3FD0134F6E72DE9F84334
S3150800194C06460025FEF71AFF06F10409D6F80080AC
S3150800195C59F8057005EB0804FFF7D1FD21463A4600
S3150800196C00230220FEF750FF044668B955F80830E4
S3150800197CBB4204D10435B5F5007FE7D10124FEF747
S3150800198C0FFF2046BDE8F8830024F8E738B50E4B60
S3150800199C044698420D4607D00C4A914212D0FFF7DE
S315080019ACCDFF10B904460BE0094C23689D4207D0BD
S315080019BC20464FF40072294640F8045BFFF7B0FF47
S315080019CC204638BD1C46F0E7A0030020002000087E
S315080019DC9C0100202DE9F0411F46036821F4FF768F
S315080019EC013304460D46904626F0010606D14FF4FF
S315080019FC0072314640F8046BFFF792FF2368B34236
S31508001A0C05D020463146FFF7C1FF0446E8B12168E8
S31508001A1C04356D1A254406F500764744FFF76FFD25
S31508001A2C231DEB1AB3F5007F06D320463146FFF784
S31508001A3CADFF044648B1051D18F8013BB84505F835
S31508001A4C013BEBD10120BDE8F0810020FBE700004B
S31508001A5C4FF0FF33024A1360024A1360704700BF07
S31508001A6C9C010020A003002030B40E4D4C1E0B46E2
S31508001A7C291A8C4212D80C4CA0420FD3411E194479
S31508001A8CA9420BD820F4FF7121F00101A1420146AD
S31508001A9C30BC0CBF05480648FFF79CBF002030BC7D
S31508001AAC704700BFFFFF010800200008A0030020B4
S31508001ABC9C01002030B500241C4D4A1E2B1A87B0F9
S31508001ACC9A42019420D81A4A20F47F7323F0030310
S31508001ADC934219D3421E0A44AA4215D80144C91A7C
S31508001AECC1F38F25C1F3090109B10135ADB2002443
S31508001AFC0493012302940593FEF740FEA3B2AB426E
S31508001B0C05D30124FEF74CFE204607B030BDFFF77F
S31508001B1CF6FC01A902A8FEF7D9FE013420B9049BEC
S31508001B2C03F580630493E9E70024EBE7FFFF01085C
S31508001B3C0020000807B50F480368013317D0D0E911
S31508001B4C01321344C2680C491344026913444269AE
S31508001B5C134482691344C26913445B4201930423F8
S31508001B6C0DEB0302FFF736FF03B05DF804FB01200B
S31508001B7CFAE700BFA00300200C2100080A4AD2E9A4
S31508001B8C00310B4491680B44D1680B4411690B4422
S31508001B9C51690B449169D2F80C210B44D3420CBF02
S31508001BAC01200020704700BF002000080A4808B52D
S31508001BBC0368013305D109480368013306D10120AE
S31508001BCC08BDFFF7BBFE0028F5D1F9E7FFF7B6FE0F
S31508001BDC003818BF0120F3E7A00300209C01002061
S31508001BEC0048704700200008FFF732BFFFF73CBFDC
S31508001BFCFFF760BFFFF7C2BFFFF7F2BF08B5FFF7E5
S31508001C0C99FF18B1BDE80840FFF7D0BF08BD000022
S31508001C1C38B5084D686000F00DF900F10A042B6818
S31508001C2C1B0605D4FFF76BFC00F004F9A042F6D9A5
S31508001C3C38BD00BF0038014010B5114C4FF4614255
S31508001C4CE36888B023F40053E3600023CDE901234D
S31508001C5C0C22204601A9CDE90333CDE905230793C8
S31508001C6CFFF742FA236923F490432361636923F04F
S31508001C7C2A036361E36843F40053E36008B010BDBC
S31508001C8C00380140812938B504460D4603D9702120
S31508001C9C0848FFF772FB2846FFF7BAFF2544AC4203
S31508001CAC00D138BDFFF72BFC14F8010BFFF7B0FF7A
S31508001CBCF5E700BF571F0008F8B51F4D0E462C78E0
S31508001CCC1E4AB4B913689B0602D400242046F8BDF4
S31508001CDC53681B4ADBB21370013BDBB2802BF4D87A
S31508001CEC00F0A8F8174B1860174B1C7001232B70C3
S31508001CFCECE7146814F0200414D0134C104923781C
S31508001D0C5768CA18577001330A78DBB29A4223709F
S31508001D1CDBD10131FFF704FE00232B702378012455
S31508001D2C3370D3E700F086F8064B1B68C833984225
S31508001D3CCBD92C70CAE700BF260600200038014014
S31508001D4CA40500202806002027060020194A82B080
S31508001D5C9369194943F4006393619369012003F469
S31508001D6C00630193019B5368C3F3C223C95C134BED
S31508001D7C1B6823FA01F15368A2F5644213F4605FF9
S31508001D8C0CBF012302234B430D491060B3FBF1F33F
S31508001D9C4FF6FF700021013BD0629362536943F002
S31508001DAC01035361074B526A1960074B1A8002B03C
S31508001DBC704700BF00100240FA1E000808000020F9
S31508001DCCA0860100300600202C060020094BDA6894
S31508001DDC42F40062DA60DA6822F40062DA609A6920
S31508001DEC22F400629A614FF0E02300221A615A61CC
S31508001DFC9A617047001002400B4B0C485B6A0288CC
S31508001E0C10B59B1A9BB2632B0DD96421B3FBF1F366
S31508001E1C074C2168194403EB830303EB830302EB9A
S31508001E2C83032160038010BD002C01402C06002082
S31508001E3C3006002008B5FFF7DFFF014B186808BD10
S31508001E4C3006002008B5FFF7D7FF014B186808BD08
S31508001E5C3006002072B6704762B6704770B5002619
S31508001E6C0C4D0D4C641BA410A64209D100F022F8A7
S31508001E7C00260A4D0A4C641BA410A64205D170BD57
S31508001E8C55F8043B98470136EEE755F8043B984756
S31508001E9C0136F2E7801F0008801F0008801F000823
S31508001EAC841F000803460244934200D1704703F886
S31508001EBC011BF9E7F8B500BFF8BC08BC9E4670478D
S31108001ECCF8B500BFF8BC08BC9E4670477D
S31508001ED802030405060708090A0B0C0D0E0F101055
S31508001EE801020000000000000000010203040607C2
S31508001EF808090000000001020304000800004F70EA
S31508001F08656E424C54002E2E2F2E2E2F2E2E2F5312
S31508001F186F757263652F41524D434D335F53544D68
S31508001F28333246312F63616E2E63000502060206B8
S31508001F380307030803090309040A040B040C040C21
S31508001F48050D050E050F050F061006100710082EB5
S31508001F582E2F2E2E2F2E2E2F536F757263652F4117
S31508001F68524D434D335F53544D333246312F7273B6
S30D08001F783233322E630000002B
S30908001F803101000815
S30908001F840D01000835
S31508001F8801000000100000000024F400050000000D
S7050800014DA4
