S01D000062696E2F6F70656E626C745F73746D3332663130332E7372656399
S31508000000005000204D0100089501000895010008E0
S3150800001095010008950100089501000800000000F8
S315080000200000000000000000000000009501000824
S31508000030950100080000000095010008490F000816
S31508000040950100089501000895010008950100082A
S31508000050950100089501000895010008950100081A
S31508000060950100089501000895010008950100080A
S3150800007095010008950100089501000895010008FA
S3150800008095010008950100089501000895010008EA
S3150800009095010008950100089501000895010008DA
S315080000A095010008950100089501000895010008CA
S315080000B095010008950100089501000895010008BA
S315080000C095010008950100089501000895010008AA
S315080000D0950100089501000895010008950100089A
S315080000E09501000895010008950100080000000028
S315080000F000000000000000000000000000000000F2
S3110800010000000000000000005FF808F195
S3150800010C10B5054C237833B9044B13B10448AFF337
S3150800011C00800123237010BD100000200000000091
S3150800012C1419000808B5034B1BB103490348AFF370
S3150800013C008008BD000000001400002014190008F7
S3150800014C00F034FE0B480C490C4A002302E0D45844
S3150800015CC4500433C4188C42F9D3094A094C0023F9
S3150800016C01E013600432A242FBD301F0A1FB00F0BC
S3150800017C2DFE70470000002010000020941900087E
S3150800018C100000200C060020FEE7000008B5054B01
S3150800019C9B689B0403D500F035F8012008BD0020A8
S315080001ACFCE700BF00100140642000F003B800F023
S315080001BC07B80000014B1880704700BF2C000020C0
S315080001CC10B501F061FB0B4C236898420DD30A4B12
S315080001DC04211878094A48B901201870116101F0F0
S315080001EC53FB074B1B880344236010BD0020187073
S315080001FC5161F4E7300000202E000020000C01406D
S3150800020C2C0000200422014B5A617047000C014057
S3150800021C10B54FF0FF320024044B1A611C61DA60EA
S3150800022CDC6000F05DFE204610BD00BF00100240E9
S3150800023C38B50E4B054618784FF47A73B3FBF0F3C2
S3150800024C0B4A1068B0FBF3F000F06CF8044658B98A
S3150800025C0F2D09D8024629464FF0FF3000F030F82A
S3150800026C2046044B1D6038BD0120FCE70000002029
S3150800027C0800002004000020074A08B5136803206C
S3150800028C43F01003136000F009F80020FFF7D0FFC5
S3150800029C00F0CCFD002008BD0020024007490302EF
S315080002ACCA6803F4E06322F4E0621204120C1343E6
S315080002BC43F0BF6343F40033CB60704700ED00E0B6
S315080002CC164B30B5DC68C4F30224C4F10703251DAC
S315080002DC042B28BF0423062D4FF0FF3598BF0024A6
S315080002EC05FA03F388BF033C21EA0303A34005FA86
S315080002FC04F422EA0402002843EA0203ACBF00F124
S3150800030C6040074A4FEA0313DBB2ABBF00F5614006
S3150800031C00F00F0080F80033135430BD00ED00E0F8
S3150800032C14ED00E00138B0F1807F0BD24FF0E023DA
S3150800033CF021054A586182F823100020072298619B
S3150800034C1A6170470120704700ED00E0114AD36826
S3150800035C13F0100305D01049CB6943F00203CB61A7
S3150800036C1023D268500706D50B4943F00403CA6913
S3150800037C42F00102CA61074AD169C90708D506487D
S3150800038CC16941F00401C161D16921F00101D16152
S3150800039CD36070470020024038000020064B1869CD
S315080003AC10F0800007D0054A5A6002F188325A606C
S315080003BC1869C0F3C0107047002002402301674536
S315080003CC034A0020136943F080031361704700BF8A
S315080003DC0020024070B5054601F05EFA0646114C3F
S315080003ECE368D80712D4E368990644BF2023E36070
S315080003FCE368DA0606D4E369DB0703D4E06810F091
S3150800040C040007D0FFF7A2FF012003E06B1CE7D01E
S3150800041C0DB9032070BD01F03FFA801BA842DFD945
S3150800042CF7E700BF002002402DE9F84FDFF890905F
S3150800043C1E4699F818300446012B0F4690463DD0B7
S3150800044C01234CF2503089F81830FFF7C3FF80BBF4
S3150800045C012C03D0022C0CBF022404240025AB4625
S3150800046CDFF860A02801C0F12002A0F1200306FAEB
S3150800047C02F228FA00F0C9F81CB0104326FA03F366
S3150800048C1843DAF8103080B243F00103CAF810307A
S3150800049C27F815004CF25030FFF79CFFDAF81030AD
S315080004AC23F00103CAF8103018B90135EBB29C4297
S315080004BCD8D8002389F81830BDE8F88F0220FBE756
S315080004CC38000020002002400022064BDA61064B59
S315080004DC1A6942F002021A6158611A6942F040021E
S315080004EC1A61704738000020002002402DE9F041BF
S315080004FC264F05463B7E8846012B44D001243C7684
S3150800050C03684CF25030022B1AD1FFF763FF20B167
S3150800051C012000233B76BDE8F0811D4CF861236968
S3150800052C4CF2503043F004032361236943F0400333
S3150800053C2361FFF74FFF236923F004032361E8E7E0
S3150800054CFFF748FF0028E3D14FF0FF33C8F8003017
S3150800055C2046AE680E4CD5E9023203EB8223B34231
S3150800056CD7D93046FFF7B0FF4CF25030FFF732FFC1
S3150800057C236923F00203236110B1C8F80060C8E7A9
S3150800058C06F58066E7E70220C5E700BF38000020BD
S3150800059C002002402DE9F341054638B30368DB0712
S315080005AC10D42B689F075ED42B68190700F1958029
S315080005BC2B685A0700F1C180E869002840F02C81A5
S315080005CC002029E0904C636803F00C03042B07D039
S315080005DC636803F00C03082B0AD16368DE0307D59E
S315080005EC23689C03DDD56B68002BDAD1012013E058
S315080005FC6B68B3F5803F12D1236843F480332360CC
S3150800060C01F04AF9064623689803CAD401F044F95E
S3150800061C801B6428F7D9032002B0BDE8F0819BB98A
S3150800062C236823F480332360236823F48023236010
S3150800063C01F032F9064623689903B2D501F02CF974
S3150800064C801B6428F7D9E6E7B3F5A02F236803D1F6
S3150800065C43F480232360CFE723F480332360236895
S3150800066C23F48023CBE7684C636813F00C0F07D090
S3150800067C636803F00C03082B10D16368DA030DD4F6
S3150800068C23689B0702D52B69012BAFD123686A69AE
S3150800069C23F0F80343EAC203236085E72A695B4B18
S315080006AC6AB101221A6001F0F7F8064623689F071B
S315080006BCECD401F0F1F8801B0228F7D9ABE71A60E5
S315080006CC01F0EAF80646236898077FF56DAF01F046
S315080006DCE3F8801B0228F6D99DE7AA694A4E4B4BCC
S315080006ECE2B10122C3F8802401F0D6F80446736AF5
S315080006FC9B070DD54FF4FA52454B1B68B3FBF2F327
S3150800070C019300BF019B5A1E0192002BF9D14FE7AA
S3150800071C01F0C2F8001B0228E9D97CE7C3F880244B
S3150800072C01F0BAF80446736A9F077FF541AF01F0EA
S3150800073CB3F8001B0228F6D96DE7334CE369D800E9
S3150800074C24D40127E36943F08053E361E36903F09A
S3150800075C80530093009B2F4E3368D90518D5EB6848
S3150800076C012B26D1236A43F00103236201F094F886
S3150800077C41F288380646236A9B073FD5002F3FF47B
S3150800078C1BAFE36923F08053E36115E70027E2E723
S3150800079C336843F48073336001F07EF8804633681F
S315080007ACDA05DCD401F078F8A0EB08006428F6D951
S315080007BC31E7ABB9236A41F2883823F00103236287
S315080007CC236A23F00403236201F066F80646236ABB
S315080007DC9807D3D501F060F8801B4045F7D91AE77E
S315080007EC052B236A03D143F004032362BAE723F0EB
S315080007FC01032362236A23F00403B6E701F04CF8DD
S3150800080C801B4045B7D906E700100240000042425B
S3150800081C08000020007000402A4C636803F00C03A3
S3150800082C082B3ED00022284B02281A662CD101F040
S3150800083C33F806462368990120D42B6AB3F5803F12
S3150800084C05D16268A96822F400320A436260696AB3
S3150800085C62680B4322F474121343012263601A4B29
S3150800086C1A6601F019F8054623689A013FF5A8AEF1
S3150800087C01F012F8401B0228F6D9CCE601F00CF868
S3150800088C801B0228D6D9C6E601F006F80546236869
S3150800089C9B017FF595AE00F0FFFF401B0228F6D9A9
S315080008ACB9E601283FF4B8AE63682A6A03F48031C6
S315080008BC91427FF49BAE6A6A03F4701393423FF439
S315080008CC7FAE93E600100240000042420D4A536880
S315080008DC03F00C01082912D10B48C3F38341DB033F
S315080008EC405C09D55368094AC3F340435043084A48
S315080008FCD35CB0FBF3F07047064B5843704703487C
S3150800090C704700BF001002402C19000800127A002C
S3150800091C3C19000800093D002DE9F0410D46044636
S3150800092C10B90120BDE8F081444A136803F00703A7
S3150800093C8B4228D321688E0730D4CA0743D43F4A42
S3150800094C136803F00703AB4265D822683C4D12F0D6
S3150800095C040F6CD1130706D56B68226923F4605310
S3150800096C43EAC2036B60FFF7B1FF6B68354AC3F302
S3150800097C0313D35CD840344B1860344B1868FFF714
S3150800098C57FC0020CEE7136823F007030B431360CC
S3150800099C136803F007038B42C3D1CBE7284B11F03E
S315080009AC040F1EBF5A6842F4E0625A60080742BF39
S315080009BC5A6842F460525A605A68A06822F0F002EB
S315080009CC02435A60B9E762681D4E012A33681AD188
S315080009DC13F4003FA5D0736841F2883823F003035B
S315080009EC1343736000F058FF07467368626803F098
S315080009FC0C03B3EB820FA2D000F04EFFC01B404590
S31508000A0CF3D903208EE7022A02D113F0007FE1E71F
S31508000A1C13F0020FDEE7136823F007032B4313606A
S31508000A2C136803F00703AB427FF47BAF8DE76B6863
S31508000A3CE16823F4E0630B436B608BE7002002400C
S31508000A4C001002403E19000808000020040000208F
S31508000A5C224B98420BD103F58433DA6842F0040230
S31508000A6CDA60DA6822F004020020DA6070471C4B60
S31508000A7C984209D103F58233DA6842F00802DA6043
S31508000A8CDA6822F00802EFE7164B984209D103F50B
S31508000A9C8033DA6842F01002DA60DA6822F0100263
S31508000AACE2E7114B984209D103F57C43DA6842F028
S31508000ABC2002DA60DA6822F02002D5E70B4B98425E
S31508000ACC09D103F57843DA6842F04002DA60DA684D
S31508000ADC22F04002C8E70120704700BF0008014019
S31508000AEC000C0140001001400014014000180140A0
S31508000AFC2DE9F04F0D680446C5F30F2595FAA5F2B6
S31508000B0C0327B2FA82F24FF0040C4FF0011E40F2A2
S31508000B1C011835FA02F001D1BDE8F08F0123934094
S31508000B2C2B4266D0072A88BFA2F10803D1F804A085
S31508000B3C8ABF0EFA03F308FA02F343F08063BAF19C
S31508000B4C080F0CD1E668180A90FAA0F9B9FA89F9CF
S31508000B5C26EA0006086900FA09F00643E6604FEA39
S31508000B6C136993FAA3F6B6FA86F693FAA3FB0F2043
S31508000B7CBBFA8BFBB60000FA06F654F809004FEAE6
S31508000B8C8B0B20EA06060AFA0BFB46EA0B0644F818
S31508000B9C0960486820F0080001282AD193FAA3F0C6
S31508000BACB0FA80F093FAA3FBBBFA8BFB800007FA2A
S31508000BBC00F026EA000688684FEA8B0B00FA0BFB56
S31508000BCC46EA0B0644F8096093FAA3FABAFA8AFAC3
S31508000BDC93FAA3F3B3FA83F34FEA8A0A0CFA0AFADE
S31508000BEC26EA0A0ACE689B009E404AEA060644F89C
S31508000BFC096001328DE70000144B1A6842F00102B5
S31508000C0C1A601A689207FCD55A6822F003025A60D1
S31508000C1C5A6812F00C0FFBD11A6822F080721A600F
S31508000C2C186810F00070FBD158601A6822F450222C
S31508000C3C1A601A6822F0F80242F080021A6098606C
S31508000C4C5A6A42F080725A62704700BF001002401E
S31508000C5C034B044A5B68C3F30313D35CD840704751
S31508000C6C001002403E190008034B044A5B68C3F3A4
S31508000C7C0223D35CD8407047001002404E19000876
S31508000C8C034B044A5B68C3F3C223D35CD840704752
S31508000C9C001002404E190008094A5368DB0341BF8D
S31508000CAC5068084BC0F34040013048BFB3FBF0F026
S31508000CBC536858BF0448C3F38343023358437047F9
S31508000CCC0010024000127A0000093D00044B5B68D4
S31508000CDC03F00C03082B01D1FFF7DEBF0148704760
S31508000CEC0010024000127A0008B50146FFF7EEFF25
S31508000CFC0860FFF7ADFF4860FFF7B6FF88604868E5
S31508000D0CFFF7BEFFC86008BD30B5C36804469B0430
S31508000D1C0D4685B002D5012005B030BD4B68C968B3
S31508000D2CC2680B43296922F4B0520B4322F00C0219
S31508000D3C1343C3600369AA6823F44053134303613E
S31508000D4C43696A6923F44073134343616846FFF7A2
S31508000D5CCBFF134B9C4219D1039B002BDBD02A6883
S31508000D6C002AD8D019214B439200B3FBF2F3642224
S31508000D7CB3FBF2F102FB11331B013233B3FBF2F373
S31508000D8C03EB01139BB20020A360C5E7054B9C42FD
S31508000D9C01D1029BE1E7044B9C42BCD1F9E700BFA9
S31508000DAC00380140004400400048004070470000ED
S31508000DBC054B82B09A6902439A619B691840019067
S31508000DCC019B02B0704700BF0010024000B591B0FD
S31508000DDCFFF752FA1422002108A800F08DFD002115
S31508000DEC142201A800F088FD022401224FF4803356
S31508000DFCCDE90623CDE90D434FF4E01306A80A9274
S31508000E0C0F93FFF7C7FB0F234FF48062CDE901342C
S31508000E1C0023214601A8CDE903320593FFF77CFD93
S31508000E2C00F0CEF800F0DBF8FCE7000070B5012006
S31508000E3C86B0FFF7BDFF244B0420DA69002542F083
S31508000E4C8052DA61DB69042403F080530093009B1B
S31508000E5CFFF7AEFF0820FFF7ABFF1020FFF7A8FF40
S31508000E6C4FF48040FFF7A4FF40F204420123CDE97A
S31508000E7C01230223154E01A93046CDE90335FFF7A8
S31508000E8C37FE134B74610DEB04011248CDE901349E
S31508000E9CFFF72EFE09231049CDE901130323CDE9EB
S31508000EAC033505F1804505F584350DEB0401284617
S31508000EBCFFF71EFE094B28460DEB0401CDE901345C
S31508000ECCFFF716FE06B070BD00100240000C01407C
S31508000EDC200020040010014002000204040004044F
S31508000EEC08B5FFF789FE1148FFF7B2FD1048FFF762
S31508000EFCAFFD1048FFF7ACFD0F4B9A6922F4804200
S31508000F0C9A619A6922F010029A619A6922F008028B
S31508000F1C9A619A6922F004029A61DA6922F080527F
S31508000F2CDA619A6922F001029A6108BD0010014043
S31508000F3C000C01400008014000100240704708B53B
S31508000F4C00F0A5F8FCE7000010B500F097F80128AA
S31508000F5C14D00B4C2378012B10D100F095FC094BBF
S31508000F6C094A1B681268134403F5FA73984205D3A9
S31508000F7C00232370BDE8104000F0DAB910BD00BF9D
S31508000F8C5C000020580000206000002008B5044BC7
S31508000F9C1B78012B03D100F077FC024B186008BDB7
S31508000FAC5C00002060000020012208B5034B1A7073
S31508000FBCFFF7ECFFBDE80840FFF7C6BF5C00002052
S31508000FCC08B500F0B3F900F060F800F0E9FB00F0A2
S31508000FDC35FB00F00FF8BDE80840FFF7E5BF08B58C
S31508000FEC00F055F800F032FC00F010F8BDE80840A7
S31508000FFCFFF7AABF08B500F059F800F047FB002226
S3150800100C014B1A7008BD00BF0C00002007B5094833
S3150800101C0DF1070100F07AFB012807D10022064BD7
S3150800102C9DF8071003481A7000F062F803B05DF8D3
S3150800103C04FB00BF640000200C0000207047000071
S3150800104C08B5054B1B7813B9C9B200F045FBBDE8CA
S3150800105C084000F045B800BF0C000020044B1B7874
S3150800106C013BDBB2032B9ABF024AD05C8120704746
S3150800107C0C00002056190008FFF7F0BF08B500F061
S3150800108C25F8003818BF012008BDFFF78DB8FFF703
S3150800109C8EB80000FE22034B1A7002225870A3F871
S315080010AC86207047E8000020006870470022064B2F
S315080010BCC3F88820A3F8862083F88120A3F8822019
S315080010CC83F88420704700BFE8000020034B93F890
S315080010DC8100003818BF0120704700BFE8000020C7
S315080010EC0022024B83F88420704700BFE8000020DA
S315080010FCF8B503780546FF2B894C30D1012200231D
S3150800110C84F8812041F2FF0284F88230A370228091
S3150800111CFFF7A4FFE070FFF7AFFF2071FFF7ACFFF6
S3150800112C40F20113E3800823000A6071A4F88630A4
S3150800113C00F084FA94F88430012B02D11020FFF7C2
S3150800114CA9FFB4F98610002940F3E98001237448F5
S3150800115C84F8843089B2BDE8F840FFF771BF94F87B
S3150800116C8120012A40F0DB80D22B16D8C82B19D93E
S3150800117CC93B092B16D8DFE803F07F151589151519
S3150800118CCF96C3B8F33B0B2B0CD8DFE803F03E28FD
S3150800119C0D350B0B0B590B61636D03F10D02D2B2B6
S315080011AC0B2AEFD9202005E0FFF758FF6A78904202
S315080011BC03D82220FFF76EFFBCE7D4F888105948ED
S315080011CC00F0D8F8FF236A782370D4F888301344D3
S315080011DCC4F888306B780133A4F88630AAE7FFF791
S315080011EC3DFF6B788342E4D2281DFFF75DFFC4F8F8
S315080011FC880001466A78E2E7FF23281D2370FFF76B
S3150800120C53FFC4F888000123E6E7FF23281D237043
S3150800121CFFF74AFF0025D4F888608719BE4208D123
S3150800122C0023012225716371E380627063800823B1
S3150800123CD2E716F8013B1D44EDB2FFF728FFEDE7A0
S3150800124C394BFF22C4F888300723C4E90023EEE79C
S3150800125C0020AFE7FF23238094F88230A370002385
S3150800126CE370A3800623B7E7002384F8813084F85B
S3150800127C8230FF232370C6E7D4F88860FFF7EEFEAA
S3150800128C6A1C411E304600F0DBF908B9312091E79B
S3150800129CFF232370FFF7E2FED4F8883001380344A5
S315080012ACC4F88830AFE7FFF7D9FE6B780138984257
S315080012BC7FF77FAFFF2323700123A4F88630697864
S315080012CC29B900F0C5F900287FF434AFDEE7D4F865
S315080012DC8800AA1C00F0B4F90028D7D06A78D4F88C
S315080012EC88301344C4F8883024E7FF23002523806C
S315080012FCA570FFF7B3FE0723E070A580A5716BE711
S3150800130C0430FFF7D1FED4F888300146184600F0B1
S3150800131C99F90028ADD1B9E700F00AF8A9E7F8BDA4
S3150800132CE8000020E90000205A19000800F0BCBAB1
S3150800133C10B500F089F9C8B1FEF728FFB0B1FFF770
S3150800134C7DFEFEF765FF00F06BFA00F07FF9084B9F
S3150800135C20F0604020F07F00986000F077F9446830
S3150800136C00F0A4FA2346BDE81040184710BD00BF8C
S3150800137C00ED00E0F8B506460F4615460024AC42CB
S3150800138C00D1F8BD3B5D3355FFF781FE0134F6E716
S3150800139C2DE9F84306460025FFF700F806F104097F
S315080013ACD6F8008059F8057005EB0804FFF76FFEB0
S315080013BC21463A4600230220FFF736F8044668B958
S315080013CC55F80830BB4204D10435B5F5007FE7D192
S315080013DC0124FEF7F5FF2046BDE8F8830024F8E75C
S315080013EC38B50E4B044698420D4607D00C4A914226
S315080013FC12D0FFF7CDFF10B904460BE0094C236851
S3150800140C9D4207D020464FF40072294640F8045BEB
S3150800141CFFF7B0FF204638BD1C46F0E778030020DE
S3150800142C00200008740100202DE9F0411F460368CE
S3150800143C21F4FF76013304460D46904626F0010644
S3150800144C06D14FF40072314640F8046BFFF792FF51
S3150800145C2368B34205D020463146FFF7C1FF044640
S3150800146CE8B1216804356D1A254406F5007647441B
S3150800147CFFF70DFE231DEB1AB3F5007F06D32046A6
S3150800148C3146FFF7ADFF044648B1051D18F8013B78
S3150800149CB84505F8013BEBD10120BDE8F0810020E9
S315080014ACFBE700004FF0FF33024A1360024A136051
S315080014BC704700BF740100207803002030B40E4D2D
S315080014CC4C1E0B46291A8C4212D80C4CA0420FD330
S315080014DC411E1944A9420BD820F4FF7121F00101D1
S315080014ECA142014630BC0CBF05480648FFF79CBF15
S315080014FC002030BC704700BFFFFF01080020000821
S3150800150C780300207401002030B500241C4D4A1EB7
S3150800151C2B1A87B09A42019420D81A4A20F47F7362
S3150800152C23F00303934219D3421E0A44AA4215D840
S3150800153C0144C91AC1F38F25C1F3090109B1013553
S3150800154CADB200240493012302940593FEF726FFFB
S3150800155CA3B2AB4205D30124FEF732FF204607B0EF
S3150800156C30BDFFF794FD01A902A8FEF7BFFF0134B1
S3150800157C20B9049B03F580630493E9E70024EBE7A1
S3150800158CFFFF01080020000807B50F480368013360
S3150800159C17D0D0E901321344C2680C4913440269C6
S315080015AC13444269134482691344C26913445B4267
S315080015BC019304230DEB0302FFF736FF03B05DF826
S315080015CC04FB0120FAE700BF780300200C21000871
S315080015DC0A4AD2E900310B4491680B44D1680B4492
S315080015EC11690B4451690B449169D2F80C210B44CF
S315080015FCD3420CBF01200020704700BF0020000812
S3150800160C0A4808B50368013305D10948036801334C
S3150800161C06D1012008BDFFF7BBFE0028F5D1F9E776
S3150800162CFFF7B6FE003818BF0120F3E77803002051
S3150800163C740100200048704700200008FFF732BFED
S3150800164CFFF73CBFFFF760BFFFF7C2BFFFF7F2BF5C
S3150800165C08B5FFF799FF18B1BDE80840FFF7D0BFEA
S3150800166C08BD000038B5084D686000F00DF900F1AA
S3150800167C0A042B681B0605D4FFF709FD00F004F9CC
S3150800168CA042F6D938BD00BF0038014010B5114C40
S3150800169C4FF46142E36888B023F40053E3600023F7
S315080016ACCDE901230C22204601A9CDE90333CDE966
S315080016BC05230793FFF728FB236923F4904323613B
S315080016CC636923F02A036361E36843F40053E36018
S315080016DC08B010BD00380140812938B504460D46BE
S315080016EC03D970210848FFF72AFC2846FFF7BAFFEA
S315080016FC2544AC4200D138BDFFF7C9FC14F8010BE0
S3150800170CFFF7B0FFF5E700BF62190008F8B51F4DE3
S3150800171C0E462C781E4AB4B913689B0602D40024CC
S3150800172C2046F8BD53681B4ADBB21370013BDBB28B
S3150800173C802BF4D800F0A8F8174B1860174B1C70C0
S3150800174C01232B70ECE7146814F0200414D0134C06
S3150800175C104923785768CA18577001330A78DBB2D0
S3150800176C9A422370DBD10131FFF704FE00232B705C
S3150800177C237801243370D3E700F086F8064B1B68F0
S3150800178CC8339842CBD92C70CAE700BFFE05002097
S3150800179C003801407C05002000060020FF050020CB
S315080017AC194A82B09369194943F4006393619369A2
S315080017BC012003F400630193019B5368C3F3C2230E
S315080017CCC95C134B1B6823FA01F15368A2F56442F2
S315080017DC13F4605F0CBF012302234B430D491060C1
S315080017ECB3FBF1F34FF6FF700021013BD062936215
S315080017FC536943F001035361074B526A1960074B4F
S3150800180C1A8002B0704700BF001002404E1900083B
S3150800181C08000020A0860100080600200406002007
S3150800182C094BDA6842F40062DA60DA6822F400627C
S3150800183CDA609A6922F400629A614FF0E02300227A
S3150800184C1A615A619A617047001002400B4B0C489A
S3150800185C5B6A028810B59B1A9BB2632B0DD964215F
S3150800186CB3FBF1F3074C2168194403EB830303EB31
S3150800187C830302EB83032160038010BD002C014017
S3150800188C040600200806002008B5FFF7DFFF014B09
S3150800189C186808BD0806002008B5FFF7D7FF014BE6
S315080018AC186808BD0806002072B6704762B67047FD
S315080018BC70B500260C4D0D4C641BA410A64209D11C
S315080018CC00F022F800260A4D0A4C641BA410A64206
S315080018DC05D170BD55F8043B98470136EEE755F827
S315080018EC043B98470136F2E78C1900088C19000856
S315080018FC8C1900089019000803460244934200D13B
S3150800190C704703F8011BF9E7F8B500BFF8BC08BC2B
S3150800191C9E467047F8B500BFF8BC08BC9E46704793
S3150800192C02030405060708090A0B0C0D0E0F101006
S3150800193C0102000000000000000001020304060773
S3150800194C08090000000001020304000800004F709B
S3150800195C656E424C54002E2E2F2E2E2F2E2E2F53C4
S3150800196C6F757263652F41524D434D335F53544D1A
S3150800197C333246312F72733233322E630000000035
S3090800198C310100080F
S309080019900D0100082F
S3150800199401000000100000000024F4000500000007
S7050800014DA4
