S01E000062696E2F64656D6F70726F675F73746D3332663130332E737265632F
S315080020000050002051210008A1210008A121000844
S31508002010A1210008A1210008A12100080000000054
S31508002020000000000000000000000000A1210008D8
S31508002030A121000800000000A1210008F1360008CF
S31508002040A1210008A1210008A1210008A12100085A
S31508002050A1210008A1210008A1210008A12100084A
S31508002060A1210008A1210008A1210008A12100083A
S31508002070A1210008A1210008A1210008A12100082A
S31508002080A1210008A1210008A1210008A12100081A
S31508002090A1210008A1210008A1210008A12100080A
S315080020A0A1210008A1210008A1210008A1210008FA
S315080020B0A1210008A1210008A1210008A1210008EA
S315080020C0A1210008A1210008A1210008A1210008DA
S315080020D0A1210008A1210008A1210008A1210008CA
S315080020E0A1210008A1210008A12100080000000084
S315080020F000000000000000000000000000000000D2
S3150800210000000000000000005FF808F1EE11AA5573
S3150800211010B5054C237833B9044B13B10448AFF313
S3150800212000800123237010BD0C0000200000000071
S315080021304437000808B5034B1BB103490348AFF3FE
S31508002140008008BD00000000100000204437000889
S31508002150DFF834D0002103E00C4B5B5843500431C0
S315080021600B480C4B42189A42F6D30B4A02E000235E
S3150800217042F8043B094B9A42F9D301F0A5F901F05C
S31508002180BDFA01F0E0F9704700500020B4370008A6
S31508002190000000200C0000200C0000202C0100206C
S315080021A0FEE7000008B50848084B03604FF4614392
S315080021B0436000238360C360036183610C2242612C
S315080021C0C36101F0ECF808BD50000020004400404F
S315080021D02DE9F04104460D461746984601F030F8B9
S315080021E01649A1FB00318909002301E00133DBB25E
S315080021F0112B1FD8124A12F8130002EB4302527829
S3150800220000EB020C0CFB044CB1FBFCFE0CFB1E168F
S31508002210002EEBD11FFA8EFCA5F800C00CF1FF3C8E
S315080022201FFA8CFCBCF5806FE0D2387088F8002065
S31508002230012000E00020BDE8F08100BFD34D621008
S315080022405C37000870B58CB00025ADF82E508DF8B7
S315080022502D508DF82C500BAB0DF12D020DF12E01E2
S315080022604FF4FA70FFF7B4FF1A4C1B4B2360257620
S315080022706576A5760126E67625776577A560E56015
S315080022809DF82D30013B1B0423619DF82C30013B42
S315080022901B056361BDF82E306360204600F031F9F6
S315080022A00695079508964CF6E043019302954FF676
S315080022B0E073039304230493059509960E230A9362
S315080022C001A9204600F0C3F9204600F046FA0CB0F2
S315080022D070BD00BF280000200064004008B5014614
S315080022E000230122034801F08AF808B1002008BD3E
S315080022F00120FCE75000002008B5FFF753FFFFF761
S31508002300A1FF08BDBFF34F8F0549CA6802F4E06212
S31508002310044B1343CB60BFF34F8F00BFFDE700BFED
S3150800232000ED00E00400FA0508B5214B1B78B3B9A7
S315080023302048FFF7D3FF012800D008BD1D4B1B78A6
S31508002340013BDBB2802BF8D801F0CEF91A4B1860A6
S31508002350174B01221A70194B00221A70EDE7174B1A
S315080023601B78013313481844FFF7B8FF012813D127
S31508002370124A13780133DBB213700E4A127893426D
S31508002380DBD10B4A002111700A4A5278FF2AD4D1B0
S31508002390022BD2D1FFF7B6FF01F0A6F9064B1B6850
S315080023A064339842C9D9024B00221A70C5E700BFA8
S315080023B01A010020980000201C0100201B010020A3
S315080023C000B58BB001AB03AA00210C4800F0F3F965
S315080023D020B9039A40F267639A4202D00BB05DF8BF
S315080023E004FB059B002BF9D19DF80430FF2BF5D192
S315080023F0079B022BF2D1FFF785FF00BF28000020BC
S3150800240008B5FFF791FFFFF7DBFF08BD08B5002207
S315080024102021024800F00AFC08BD00BF0008014060
S3150800242010B501F061F90E4B1B68C31AB3F5FA7FB4
S315080024300CD304460B4B1B784BB90122094B1A7077
S315080024402021094800F0F2FB054B1C6010BD002254
S31508002450044B1A702021044800F0E8FBF4E700BF9B
S3150800246024010020200100200008014010B5044680
S315080024700E4B18784FF47A73B3FBF0F30C4A1068D6
S31508002480B0FBF3F000F096FA68B90F2C01D90120D9
S315080024900AE0002221464FF0FF3000F053FA054BC0
S315080024A01C60002000E0012010BD00BF00000020D5
S315080024B0080000200400002008B5074A136843F006
S315080024C010031360032000F02BFA0020FFF7CEFF5D
S315080024D001F044F8002008BD00200240034A1168B4
S315080024E0034B1B780B441360704700BF280100207C
S315080024F000000020014B1868704700BF2801002023
S315080025007047002800F0A18038B5044690F82030BE
S31508002510D3B12268136843F001031360FFF7EAFF9B
S31508002520054623685A6812F0010F10D1FFF7E2FF3B
S31508002530401B0A28F5D9636A43F40033636205230E
S3150800254084F82030012038BDFFF7DAFFE1E71A6882
S3150800255022F002021A60FFF7CDFF054623685A6883
S3150800256012F0020F0DD0FFF7C5FF401B0A28F5D958
S31508002570636A43F400336362052384F8203001203C
S31508002580E1E7227E012A3DD01A6822F080021A600D
S31508002590637E012B3BD02268136823F04003136047
S315080025A0A37E012B39D02268136823F02003136019
S315080025B0E37E012B37D02268136843F010031360BB
S315080025C0237F012B35D02268136823F00803136094
S315080025D0637F012B33D02268136823F0040313604A
S315080025E0A368E26813432269134362691343626866
S315080025F0013A21681343CB6100206062012384F805
S315080026002030A0E71A6842F080021A60C0E7226804
S31508002610136843F040031360C2E72268136843F067
S3150800262020031360C4E72268136823F010031360BD
S31508002630C6E72268136843F008031360C8E72268F0
S31508002640136843F004031360CAE701207047026861
S3150800265090F82030013BDBB2012B05D9436A43F4DD
S31508002660802343620120704710B5D2F8003243F048
S315080026700103C2F800324B6903F01F03012000FA78
S3150800268003F3D2F81C026FEA030C20EA0300C2F82F
S315080026901C02C869C0B9D2F80C020CEA0000C2F8DC
S315080026A00C028C884869D1F80CE044EA0E4448309C
S315080026B042F830400C884869D1F808E044EA0E44EC
S315080026C0483002EBC0004460C86901281AD08869FE
S315080026D088BBD2F804020CEA0000C2F804020869B2
S315080026E078BBD2F814020CEA0000C2F81402096A90
S315080026F001292CD0D2F8003223F00103C2F80032A7
S31508002700002010BDD2F80C021843C2F80C028C88BF
S315080027104869D1F800E044EA0E44483042F83040AF
S315080027208C894869D1F808E044EA0E44483002EB3F
S31508002730C0004460CBE7D2F804021843C2F804028A
S31508002740CDE7D2F814021843C2F81402CFE7D2F83C
S315080027501C120B43C2F81C32CCE770B5044690F83D
S315080027602050EDB2012D06D0436A43F4002343629C
S315080027700125284670BD022380F8203002681368B8
S3150800278023F001031360FFF7B5FE064623685B686E
S3150800279013F0010F0CD0FFF7ADFE831B0A2BF5D9FA
S315080027A0636A43F400336362052384F82030E0E764
S315080027B000256562DDE790F820C00CF1FF3C5FFA62
S315080027C08CFCBCF1010F00F2A58030B451B9046845
S315080027D0E46814F0030F10D1436A43F4001343620C
S315080027E001207EE00468246914F0030F05D1436ACA
S315080027F043F400134362012073E0056801F11B04EA
S3150800280024012C5904F004049460002C6BD105684B
S3150800281001F11B0424012C59640D1460046801F1AC
S315080028201B0C4FEA0C1C54F80C4004F00204D4604C
S315080028300468A444DCF8045015F0080F5BD008249B
S315080028401461056801F11B0C05EB0C156D68C5F3E1
S3150800285007259561046804EB0C146468240C54611C
S31508002860026802EB0112D2F8B8211A70026802EB6C
S315080028700112D2F8B821C2F307225A70026802EB95
S315080028800112D2F8B821C2F307429A70026802EB25
S315080028900112D2F8B821120EDA70026802EB0112A0
S315080028A0D2F8BC211A71026802EB0112D2F8BC21D7
S315080028B0C2F307225A71026802EB0112D2F8BC2150
S315080028C0C2F307429A71026802EB0112D2F8BC21E0
S315080028D0120EDA71C1B90268D36843F02003D360D7
S315080028E0002030BC7047056801F11B0424012C59EF
S315080028F0E408546092E701F11B0504EB05146468CB
S3150800290004F00F0414619CE70268136943F020037E
S315080029101361E5E7436A43F4802343620120704765
S31508002920074AD36823F4E0631B041B0C000200F477
S31508002930E060034343F0BF6343F40033D36070475A
S3150800294000ED00E000B5194BDB68C3F30223C3F1C1
S31508002950070CBCF1040F28BF4FF0040C03F1040E5A
S31508002960BEF1060F18D9033B4FF0FF3E0EFA0CFCDA
S3150800297021EA0C0199400EFA03F322EA03031943EC
S3150800298000280BDB0901C9B200F1604000F561407F
S3150800299080F800135DF804FB0023E5E700F00F005C
S315080029A00901C9B2024B1954F4E700BF00ED00E073
S315080029B014ED00E00138B0F1807F0BD24FF0E02330
S315080029C05861054AF02182F82310002098610722F1
S315080029D01A6170470120704700ED00E0042806D010
S315080029E04FF0E022136923F00403136170474FF098
S315080029F0E022136943F0040313617047704708B572
S31508002A00FFF7FCFF08BD000070B582B00024A4469D
S31508002A10A6E0804DAA4210D007D97F4DAA420CD015
S31508002A2005F58035AA4208D013E0A5F58015AA4217
S31508002A3003D005F57025AA4207D18A68002A58D01E
S31508002A40012A51D04361082403E0A5F58015AA425E
S31508002A50F3D0BEF1FF0F4ED80646BEF1FF0F4CD895
S31508002A604FEA8C0233680F25954023EA050304FADA
S31508002A7002F2134333604B6813F0805F6ED0674BE6
S31508002A809A6942F001029A619B6903F00103019376
S31508002A90019B4FEA9C02951C614B53F825600CF08C
S31508002AA003039D000F23AB4026EA03065D4B9842BD
S31508002AB029D003F58063984200F08E8003F5806381
S31508002AC0984200F08B8003F58063984219D004235E
S31508002AD01AE0CC68BDE7CC680434BAE7CC68083499
S31508002AE0B7E7CC680C34B4E703610824B1E70024DF
S31508002AF0AFE70424ADE7061DAFE7ACF10802920084
S31508002B00B0E7032300E00023AB4033430232444DD1
S31508002B1045F822304B6813F4801F61D0424A936807
S31508002B2043EA0E0393604B6813F4001F5ED03E4AD7
S31508002B30D36843EA0E03D3604B6813F4003F5BD0B7
S31508002B40394A536843EA0E0353604B6813F4803FCF
S31508002B5058D0354A136843EA0E0313600CF1010C8A
S31508002B600A6832FA0CF353D0012303FA0CF302EA8B
S31508002B70030E33EA0202F1D14A68122A3FF649AF38
S31508002B80122A3FF666AF01A555F822F03B2A00083F
S31508002B90D32A0008DD2A0008EF2A0008532A00086D
S31508002BA0532A0008532A0008532A0008532A000803
S31508002BB0532A0008532A0008532A0008532A0008F3
S31508002BC0532A0008532A0008532A0008532A0008E3
S31508002BD0D72A0008E32A0008012395E7022393E78A
S31508002BE0114A936823EA0E0393609CE70E4AD3685A
S31508002BF023EA0E03D3609FE70B4A536823EA0E03C2
S31508002C005360A2E7084A136823EA0E031360A5E790
S31508002C1002B070BD00002210000031100010024002
S31508002C200000014000080140000401400AB10161AA
S31508002C30704709040161704782B0084B1B68084A4F
S31508002C40A2FB03235B0A00FB03F3019300BF019B6E
S31508002C505A1E0192002BF9D102B0704708000020D5
S31508002C60D34D6210002800F0F18170B582B0044699
S31508002C70036813F0010F2CD0994B5B6803F00C0323
S31508002C80042B1DD0964B5B6803F00C03082B12D05F
S31508002C906368B3F5803F41D0002B55D103F18043DB
S31508002CA003F504331A6822F480321A601A6822F48B
S31508002CB080221A6037E08A4B5B6813F4803FE7D0BE
S31508002CC0874B1B6813F4003F03D06368002B00F0A2
S31508002CD0BF81236813F0020F75D0814B5B6813F030
S31508002CE00C0F5FD07E4B5B6803F00C03082B54D0A7
S31508002CF02369002B00F08A807A4B01221A60FFF7BD
S31508002D00F9FB0546764B1B6813F0020F75D1FFF7E2
S31508002D10F1FB401B0228F5D903209EE1704A13688F
S31508002D2043F480331360636843B3FFF7E3FB054658
S31508002D306B4B1B6813F4003FCBD1FFF7DBFB401B43
S31508002D406428F5D9032088E1B3F5A02F09D0644B90
S31508002D501A6822F480321A601A6822F480221A60ED
S31508002D60E1E703F18043A3F53C331A6842F4802275
S31508002D701A601A6842F480321A60D4E7FFF7BAFB81
S31508002D800546574B1B6813F4003FA2D0FFF7B2FB6A
S31508002D90401B6428F5D903205FE1514B5B6813F4A7
S31508002DA0803FA5D14E4B1B6813F0020F03D0236951
S31508002DB0012B40F04F814A4A136823F0F8036169F2
S31508002DC043EAC1031360236813F0080F33D0A369DD
S31508002DD0002B5CD0434B0122C3F88024FFF78AFB03
S31508002DE005463F4B5B6A13F0020F21D1FFF782FBC2
S31508002DF0401B0228F5D903202FE1394A136823F02E
S31508002E00F803616943EAC1031360DCE7354B002226
S31508002E101A60FFF76FFB0546314B1B6813F0020F6C
S31508002E20D1D0FFF767FB401B0228F5D9032014E130
S31508002E300120FFF701FF236813F0040F00F09680C6
S31508002E40274BDB6913F0805F34D1254BDA6942F0F2
S31508002E508052DA61DB6903F080530193019B0125F7
S31508002E60214B1B6813F4807F26D0E368012B3DD0E5
S31508002E70002B53D103F1804303F504331A6A22F079
S31508002E8001021A621A6A22F004021A6233E0154B2A
S31508002E900022C3F88024FFF72DFB0546104B5B6A1A
S31508002EA013F0020FC7D0FFF725FB401B0228F5D900
S31508002EB00320D2E00025D3E70B4A136843F4807356
S31508002EC01360FFF717FB0646074B1B6813F4807F52
S31508002ED0CBD1FFF70FFB801B6428F5D90320BCE094
S31508002EE00010024000004242007000405F4A136A28
S31508002EF043F001031362E36833B3FFF7FBFA0646B0
S31508002F005A4B1B6A13F0020F2FD1FFF7F3FA801BF7
S31508002F1041F288339842F3D903209EE0052B09D065
S31508002F20524B1A6A22F001021A621A6A22F0040245
S31508002F301A62E0E74D4B1A6A42F004021A621A6AEC
S31508002F4042F001021A62D6E7FFF7D4FA0646474B63
S31508002F501B6A13F0020F08D0FFF7CCFA801B41F268
S31508002F6088339842F3D9032077E0E5B9E369002B63
S31508002F7072D03E4A526802F00C02082A56D0022B3A
S31508002F8017D03B4B00221A66FFF7B4FA0446374BB4
S31508002F901B6813F0007F47D0FFF7ACFA001B022826
S31508002FA0F5D9032059E0314AD36923F08053D36118
S31508002FB0DCE72F4B00221A66FFF79CFA05462B4BD7
S31508002FC01B6813F0007F06D0FFF794FA401B02280F
S31508002FD0F5D9032041E0236AB3F5803F1AD0234987
S31508002FE04B6823F47413226A606A024313434B60E6
S31508002FF01F4B01221A66FFF77DFA04461B4B1B6816
S3150800300013F0007F0ED1FFF775FA001B0228F5D9D9
S31508003010032022E0154A536823F40033A1680B43C2
S315080030205360DCE7002018E0002016E0012B16D0DC
S315080030300E4B5B6803F48031226A914211D103F486
S315080030407013626A93420ED1002006E00120704791
S31508003050012002E0012000E0002002B070BD01203E
S31508003060FBE70120F9E70120F7E700BF001002405F
S31508003070000042420F4B5B6803F00C02082A01D09D
S315080030800D487047C3F383420C49885C13F4803FAC
S315080030900BD0084B5B68C3F34043094AD35C064A26
S315080030A002FB00F0B0FBF3F07047064B03FB00F0A1
S315080030B0704700BF0010024000127A0080370008EF
S315080030C09037000800093D00002800F0A08070B580
S315080030D00D460446524B1B6803F007038B420BD27E
S315080030E04F4A136823F007030B431360136803F072
S315080030F007038B4240F08D80236813F0020F17D028
S3150800310013F0040F04D0474A536843F4E06353604E
S31508003110236813F0080F04D0424A536843F46053F7
S315080031205360404A536823F0F003A1680B43536089
S31508003130236813F0010F31D06368012B20D0022BCE
S3150800314025D0384A126812F0020F64D035494A6809
S3150800315022F0030213434B60FFF7CCF90646314BC6
S315080031605B6803F00C036268B3EB820F16D0FFF7B7
S31508003170C1F9801B41F288339842F0D9032045E013
S31508003180284A126812F4003FE0D101203EE0254AA1
S31508003190126812F0007FD9D1012037E0204B1B6856
S315080031A003F00703AB420AD91D4A136823F0070345
S315080031B02B431360136803F00703AB422DD1236832
S315080031C013F0040F06D0174A536823F4E063E16846
S315080031D00B435360236813F0080F07D0114A53684E
S315080031E023F46053216943EAC1035360FFF742FFA2
S315080031F00C4B5B68C3F303130B4AD35CD8400B4BE9
S3150800320018600B4B1868FFF731F9002070BD0120D4
S3150800321070470120FAE70120F8E70120F6E700BF2A
S3150800322000200240001002409437000808000020E1
S3150800323004000020014B1868704700BF08000020F2
S3150800324008B5FFF7F7FF044B5B68C3F30223034A8D
S31508003250D35CD84008BD00BF00100240A437000860
S3150800326008B5FFF7E7FF044B5B68C3F3C223034ABD
S31508003270D35CD84008BD00BF00100240A437000840
S3150800328010B504460268136923F44053C1680B431A
S31508003290136183680269134342691A430168CB685C
S315080032A023F4B05323F00C031343CB60026853692D
S315080032B023F4407381690B4353610268134B9A42A6
S315080032C020D0FFF7BDFF024602EB820202EB820224
S315080032D063689B00B2FBF3F20D48A0FB0231490973
S315080032E0642303FB11231B013233A0FB03235B0971
S315080032F003F0F00202EB011203F00F0321681344F6
S315080033008B6010BDFFF7ACFF0246DDE700380140D1
S315080033101F85EB512DE9F84305460F461646994693
S31508003320DDF820802C68246837EA04030CBF4FF0C8
S31508003330010C4FF0000CB4452DD1B8F1FF3FF1D088
S31508003340B8F1000F05D0FFF7D5F8A0EB0900404506
S31508003350E8D92A6802F10C0353E8003F23F4D07336
S315080033600C3242E800310029F3D12A6802F114032D
S3150800337053E8003F23F00103143242E800310029E4
S31508003380F3D1202385F8413085F84230002385F8AB
S315080033904030032000E00020BDE8F883704760B3A2
S315080033A010B5044690F8413013B3242384F841300D
S315080033B02268D36823F40053D3602046FFF760FFE2
S315080033C02268136923F4904313612268536923F032
S315080033D02A0353612268D36843F40053D36000205C
S315080033E06064202384F8413084F84230606310BD5D
S315080033F080F84030FFF7D2FFD7E7012070472DE964
S31508003400F04182B01E4690F84230DBB2202B53D1F1
S3150800341004460D469046002952D00AB901204CE0D0
S3150800342000234364222280F842200363FFF762F8F0
S315080034300746A4F82C80A4F82E80A368B3F5805F0D
S3150800344002D04FF0000817E0236913B14FF00008C7
S3150800345012E0A84600250FE023685B68C3F308035B
S3150800346028F8023B03E023685B682B700135E28D80
S3150800347092B2013A92B2E285E38D9BB2BBB1009655
S315080034803B46002220212046FFF744FFD0B9002DF5
S31508003490E2D0A368B3F5805FE5D013B92369002BA2
S315080034A0E1D023685B6803F07F032B70DEE72023F7
S315080034B084F84230002000E0022002B0BDE8F08126
S315080034C00120FAE70320F8E770470000014A024B9B
S315080034D09A6070470020000800ED00E000B591B042
S315080034E0012306934FF4A0220792002208920A931A
S315080034F002230D934FF480330E934FF4E0130F938A
S3150800350006A8FFF7AFFB00B1FEE70F2301930221E0
S315080035100291002303934FF480620492059301A855
S31508003520FFF7D2FD00B1FEE711B05DF804FB08B560
S31508003530FFF7CCFFFEF7C0FFFFF7D0FF00F0BEF89D
S31508003540FEF764FF08BD08B5FFF7F1FFFEF7D4FEE6
S31508003550FEF766FFFEF754FFFAE70000F0B58BB0FA
S31508003560524B9A6942F001029A619A6902F0010285
S315080035700092009ADA6942F08052DA61DA6902F05A
S3150800358080520192019A9A6942F004029A619A69F4
S3150800359002F004020292029A9A6942F008029A61BB
S315080035A09A6902F008020392039ADA6942F4003231
S315080035B0DA61DA6902F400320492049ADA6942F0AE
S315080035C00072DA61DB6903F000730593059B03203B
S315080035D0FFF7A6F9002211466FF00B00FFF7B2F9C4
S315080035E0002211466FF00A00FFF7ACF900221146D7
S315080035F06FF00900FFF7A6F9002211466FF00400E4
S31508003600FFF7A0F9002211466FF00300FFF79AF9B9
S31508003610002211466FF00100FFF794F900221146C7
S315080036204FF0FF30FFF78EF92027069701230793FF
S3150800363000240894022609961D4D06A92846FFF778
S31508003640E3F9224639462846FFF7F0FA042306939B
S3150800365007960327099706A92846FFF7D5F90823E9
S3150800366006930794089406A92846FFF7CDF94FF460
S3150800367080730693079408940E4C06A92046FFF714
S31508003680C3F94FF4007306930796099706A92046CF
S31508003690FFF7BAF9084A536823F4C04343F0E063D6
S315080036A043F4804353600BB0F0BD00BF00100240E6
S315080036B000080140000C01400000014008B5FFF772
S315080036C0B9FD084BA3FB00308009FFF773F9042006
S315080036D0FFF784F9002211464FF0FF30FFF732F961
S315080036E008BD00BFD34D621008B5FEF703FF08BD3D
S315080036F008B5FEF7F3FEFFF782F908BD70B5002698
S315080037000C4D0D4C641BA410A64209D100F01AF802
S3150800371000260A4D0A4C641BA410A64205D170BDAA
S3150800372055F8043B98470136EEE755F8043B9847A9
S315080037300136F2E7AC370008AC370008AC370008AA
S31508003740B0370008F8B500BFF8BC08BC9E467047FD
S31108003750F8B500BFF8BC08BC9E467047E0
S3150800375C05020602060307030803090309040A04FB
S3150800376C0B040C040C050D050E050F050F061006AB
S3150800377C1007100802030405060708090A0B0C0DA6
S3150800378C0E0F1010010200000000000000000000DF
S3150800379C01020304060708090000000001020304DD
S309080037AC35210008AD
S309080037B011210008CD
S311080037B401000000100000000024F400D2
S7050800215180
