S01E000062696E2F64656D6F70726F675F73746D3332663130332E737265632F
S31508000000005000204D0100089501000895010008E0
S3150800001095010008950100089501000800000000F8
S315080000200000000000000000000000009501000824
S31508000030950100080000000095010008211100083C
S31508000040950100089501000895010008950100082A
S31508000050950100089501000895010008950100081A
S31508000060950100089501000895010008950100080A
S3150800007095010008950100089501000895010008FA
S3150800008095010008950100089501000895010008EA
S3150800009095010008950100089501000895010008DA
S315080000A095010008950100089501000895010008CA
S315080000B095010008950100089501000895010008BA
S315080000C095010008950100089501000895010008AA
S315080000D0950100089501000895010008950100089A
S315080000E09501000895010008950100080000000028
S315080000F000000000000000000000000000000000F2
S3110800010000000000000000005FF808F195
S3150800010C10B5054C237833B9044B13B10448AFF337
S3150800011C00800123237010BD0C0000200000000095
S3150800012C7411000808B5034B1BB103490348AFF318
S3150800013C008008BD000000001000002074110008A3
S3150800014C00F0FCFE0B480C490C4A002302E0D4587C
S3150800015CC4500433C4188C42F9D3094A094C0023F9
S3150800016C01E013600432A242FBD300F0D9FF00F081
S3150800017C24FF7047000000200C000020C011000866
S3150800018C0C00002004010020FEE7000008B5084812
S3150800019C084B03604FF46143436000238360C360DC
S315080001AC036183610C224261C36100F032FE08BD13
S315080001BC280000200044004008B50146002301220F
S315080001CC034800F056FE08B1002008BD0120FCE7E4
S315080001DC2800002008B5FFF7D9FF08BDBFF34F8FDD
S315080001EC0549CA6802F4E062044B1343CB60BFF3BB
S315080001FC4F8F00BFFDE700BF00ED00E00400FA05D5
S3150800020C08B5214B1B78B3B92048FFF7D5FF012851
S3150800021C00D008BD1D4B1B78013BDBB2802BF8D8F0
S3150800022C00F074FF1A4B1860174B01221A70194B01
S3150800023C00221A70EDE7174B1B7801331348184444
S3150800024CFFF7BAFF012813D1124A13780133DBB230
S3150800025C13700E4A12789342DBD10B4A00211170A7
S3150800026C0A4A5278FF2AD4D1022BD2D1FFF7B6FF0D
S3150800027C00F04CFF064B1B6864339842C9D9024BF5
S3150800028C00221A70C5E700BFF2000020700000209B
S3150800029CF4000020F300002008B5FFF7B1FF08BDF5
S315080002AC08B500220421024800F0FAF908BD00BF7F
S315080002BC000C014010B500F029FF0E4B1B68C31A41
S315080002CCB3F5FA7F0CD304460B4B1B784BB90122BA
S315080002DC094B1A700421094800F0E2F9054B1C6019
S315080002EC10BD0022044B1A700421044800F0D8F9FA
S315080002FCF4E700BFFC000020F8000020000C0140C9
S3150800030C10B504460E4B18784FF47A73B3FBF0F31A
S3150800031C0C4A1068B0FBF3F000F086F868B90F2C9D
S3150800032C01D901200AE0002221464FF0FF3000F0E7
S3150800033C43F8054B1C60002000E0012010BD00BFEF
S3150800034C00000020080000200400002008B5074A19
S3150800035C136843F010031360032000F01BF8002009
S3150800036CFFF7CEFF00F034FE002008BD0020024047
S3150800037C034A1168034B1B780B441360704700BF84
S3150800038C0001002000000020014B1868704700BFD0
S3150800039C00010020074AD36823F4E0631B041B0CF6
S315080003AC000200F4E060034343F0BF6343F40033F8
S315080003BCD360704700ED00E000B5194BDB68C3F35A
S315080003CC0223C3F1070CBCF1040F28BF4FF0040C31
S315080003DC03F1040EBEF1060F18D9033B4FF0FF3E8E
S315080003EC0EFA0CFC21EA0C0199400EFA03F322EAE8
S315080003FC0303194300280BDB0901C9B200F160405D
S3150800040C00F5614080F800135DF804FB0023E5E76E
S3150800041C00F00F000901C9B2024B1954F4E700BFEA
S3150800042C00ED00E014ED00E00138B0F1807F0BD24E
S3150800043C4FF0E0235861054AF02182F8231000207A
S3150800044C986107221A6170470120704700ED00E099
S3150800045C042806D04FF0E022136923F00403136135
S3150800046C70474FF0E022136943F004031361704799
S3150800047C704708B5FFF7FCFF08BD000070B582B0E1
S3150800048C0024A446A6E0804DAA4210D007D97F4D79
S3150800049CAA420CD005F58035AA4208D013E0A5F57A
S315080004AC8015AA4203D005F57025AA4207D18A6899
S315080004BC002A58D0012A51D04361082403E0A5F537
S315080004CC8015AA42F3D0BEF1FF0F4ED80646BEF1F0
S315080004DCFF0F4CD84FEA8C0233680F25954023EA58
S315080004EC050304FA02F2134333604B6813F0805F7A
S315080004FC6ED0674B9A6942F001029A619B6903F0C8
S3150800050C01030193019B4FEA9C02951C614B53F81E
S3150800051C25600CF003039D000F23AB4026EA030667
S3150800052C5D4B984229D003F58063984200F08E8083
S3150800053C03F58063984200F08B8003F5806398423C
S3150800054C19D004231AE0CC68BDE7CC680434BAE7A2
S3150800055CCC680834B7E7CC680C34B4E703610824D4
S3150800056CB1E70024AFE70424ADE7061DAFE7ACF10D
S3150800057C08029200B0E7032300E00023AB403343A4
S3150800058C0232444D45F822304B6813F4801F61D073
S3150800059C424A936843EA0E0393604B6813F4001FB0
S315080005AC5ED03E4AD36843EA0E03D3604B6813F415
S315080005BC003F5BD0394A536843EA0E0353604B68D5
S315080005CC13F4803F58D0354A136843EA0E03136078
S315080005DC0CF1010C0A6832FA0CF353D0012303FA16
S315080005EC0CF302EA030E33EA0202F1D14A68122A24
S315080005FC3FF649AF122A3FF666AF01A555F822F029
S3150800060CBB040008530500085D0500086F050008C3
S3150800061CD3040008D3040008D3040008D304000844
S3150800062CD3040008D3040008D3040008D304000834
S3150800063CD3040008D3040008D3040008D304000824
S3150800064CD30400085705000863050008012395E73D
S3150800065C022393E7114A936823EA0E0393609CE7F7
S3150800066C0E4AD36823EA0E03D3609FE70B4A5368F6
S3150800067C23EA0E035360A2E7084A136823EA0E031B
S3150800068C1360A5E702B070BD0000221000003110FF
S3150800069C001002400000014000080140000401401F
S315080006AC0AB10161704709040161704782B0084BB1
S315080006BC1B68084AA2FB03235B0A00FB03F301939E
S315080006CC00BF019B5A1E0192002BF9D102B070474C
S315080006DC08000020D34D6210002800F0F18170B597
S315080006EC82B00446036813F0010F2CD0994B5B6853
S315080006FC03F00C03042B1DD0964B5B6803F00C031C
S3150800070C082B12D06368B3F5803F41D0002B55D126
S3150800071C03F1804303F504331A6822F480321A6015
S3150800072C1A6822F480221A6037E08A4B5B6813F445
S3150800073C803FE7D0874B1B6813F4003F03D06368F0
S3150800074C002B00F0BF81236813F0020F75D0814B84
S3150800075C5B6813F00C0F5FD07E4B5B6803F00C03E1
S3150800076C082B54D02369002B00F08A807A4B01227F
S3150800077C1A60FFF709FE0546764B1B6813F0020F45
S3150800078C75D1FFF701FE401B0228F5D903209EE11F
S3150800079C704A136843F480331360636843B3FFF7F6
S315080007ACF3FD05466B4B1B6813F4003FCBD1FFF7E3
S315080007BCEBFD401B6428F5D9032088E1B3F5A02F7F
S315080007CC09D0644B1A6822F480321A601A6822F42B
S315080007DC80221A60E1E703F18043A3F53C331A68DB
S315080007EC42F480221A601A6842F480321A60D4E7FE
S315080007FCFFF7CAFD0546574B1B6813F4003FA2D0FA
S3150800080CFFF7C2FD401B6428F5D903205FE1514B65
S3150800081C5B6813F4803FA5D14E4B1B6813F0020F8F
S3150800082C03D02369012B40F04F814A4A136823F001
S3150800083CF803616943EAC1031360236813F0080FD0
S3150800084C33D0A369002B5CD0434B0122C3F8802418
S3150800085CFFF79AFD05463F4B5B6A13F0020F21D151
S3150800086CFFF792FD401B0228F5D903202FE1394AE0
S3150800087C136823F0F803616943EAC1031360DCE7E4
S3150800088C354B00221A60FFF77FFD0546314B1B6876
S3150800089C13F0020FD1D0FFF777FD401B0228F5D9CC
S315080008AC032014E10120FFF701FF236813F0040F5E
S315080008BC00F09680274BDB6913F0805F34D1254B0B
S315080008CCDA6942F08052DA61DB6903F080530193EE
S315080008DC019B0125214B1B6813F4807F26D0E36806
S315080008EC012B3DD0002B53D103F1804303F5043380
S315080008FC1A6A22F001021A621A6A22F004021A62B1
S3150800090C33E0154B0022C3F88024FFF73DFD05465E
S3150800091C104B5B6A13F0020FC7D0FFF735FD401B6F
S3150800092C0228F5D90320D2E00025D3E70B4A136831
S3150800093C43F480731360FFF727FD0646074B1B68C5
S3150800094C13F4807FCBD1FFF71FFD801B6428F5D9E4
S3150800095C0320BCE000100240000042420070004038
S3150800096C5F4A136A43F001031362E36833B3FFF774
S3150800097C0BFD06465A4B1B6A13F0020F2FD1FFF7D5
S3150800098C03FD801B41F288339842F3D903209EE07D
S3150800099C052B09D0524B1A6A22F001021A621A6AFE
S315080009AC22F004021A62E0E74D4B1A6A42F004027E
S315080009BC1A621A6A42F001021A62D6E7FFF7E4FCD9
S315080009CC0646474B1B6A13F0020F08D0FFF7DCFCF0
S315080009DC801B41F288339842F3D9032077E0E5B9B6
S315080009ECE369002B72D03E4A526802F00C02082AC0
S315080009FC56D0022B17D03B4B00221A66FFF7C4FCC5
S31508000A0C0446374B1B6813F0007F47D0FFF7BCFC36
S31508000A1C001B0228F5D9032059E0314AD36923F083
S31508000A2C8053D361DCE72F4B00221A66FFF7ACFC28
S31508000A3C05462B4B1B6813F0007F06D0FFF7A4FC6A
S31508000A4C401B0228F5D9032041E0236AB3F5803F01
S31508000A5C1AD023494B6823F47413226A606A02433A
S31508000A6C13434B601F4B01221A66FFF78DFC044695
S31508000A7C1B4B1B6813F0007F0ED1FFF785FC001B80
S31508000A8C0228F5D9032022E0154A536823F40033CB
S31508000A9CA1680B435360DCE7002018E0002016E041
S31508000AAC012B16D00E4B5B6803F48031226A9142F7
S31508000ABC11D103F47013626A93420ED1002006E03A
S31508000ACC01207047012002E0012000E0002002B05E
S31508000ADC70BD0120FBE70120F9E70120F7E700BF0D
S31508000AEC00100240000042420F4B5B6803F00C02F8
S31508000AFC082A01D00D487047C3F383420C49885C19
S31508000B0C13F4803F0BD0084B5B68C3F34043094A88
S31508000B1CD35C064A02FB00F0B0FBF3F07047064BB9
S31508000B2C03FB00F0704700BF0010024000127A0069
S31508000B3C8C1100089C11000800093D00002800F0E3
S31508000B4CA08070B50D460446524B1B6803F007038C
S31508000B5C8B420BD24F4A136823F007030B431360DF
S31508000B6C136803F007038B4240F08D80236813F05B
S31508000B7C020F17D013F0040F04D0474A536843F4F6
S31508000B8CE0635360236813F0080F04D0424A536895
S31508000B9C43F460535360404A536823F0F003A1684A
S31508000BAC0B435360236813F0010F31D06368012B94
S31508000BBC20D0022B25D0384A126812F0020F64D0C6
S31508000BCC35494A6822F0030213434B60FFF7DCFBF6
S31508000BDC0646314B5B6803F00C036268B3EB820F75
S31508000BEC16D0FFF7D1FB801B41F288339842F0D917
S31508000BFC032045E0284A126812F4003FE0D1012090
S31508000C0C3EE0254A126812F0007FD9D1012037E060
S31508000C1C204B1B6803F00703AB420AD91D4A13681D
S31508000C2C23F007032B431360136803F00703AB4247
S31508000C3C2DD1236813F0040F06D0174A536823F4F2
S31508000C4CE063E1680B435360236813F0080F07D081
S31508000C5C114A536823F46053216943EAC10353606C
S31508000C6CFFF742FF0C4B5B68C3F303130B4AD35CC9
S31508000C7CD8400B4B18600B4B1868FFF741FB00204C
S31508000C8C70BD012070470120FAE70120F8E7012022
S31508000C9CF6E700BF0020024000100240A011000831
S31508000CAC0800002004000020014B1868704700BF9C
S31508000CBC0800002008B5FFF7F7FF044B5B68C3F381
S31508000CCC0223034AD35CD84008BD00BF001002407B
S31508000CDCB011000808B5FFF7E7FF044B5B68C3F3D0
S31508000CECC223034AD35CD84008BD00BF001002409B
S31508000CFCB011000810B504460268136923F4405372
S31508000D0CC1680B43136183680269134342691A432A
S31508000D1C0168CB6823F4B05323F00C031343CB6060
S31508000D2C0268536923F4407381690B435361026863
S31508000D3C134B9A4220D0FFF7BDFF024602EB820204
S31508000D4C02EB820263689B00B2FBF3F20D48A0FB30
S31508000D5C02314909642303FB11231B013233A0FB1F
S31508000D6C03235B0903F0F00202EB011203F00F03F5
S31508000D7C216813448B6010BDFFF7ACFF0246DDE714
S31508000D8C003801401F85EB512DE9F84305460F46FF
S31508000D9C16469946DDF820802C68246837EA040341
S31508000DAC0CBF4FF0010C4FF0000CB4452DD1B8F127
S31508000DBCFF3FF1D0B8F1000F05D0FFF7E5FAA0EB2D
S31508000DCC09004045E8D92A6802F10C0353E8003FAC
S31508000DDC23F4D0730C3242E800310029F3D12A6887
S31508000DEC02F1140353E8003F23F00103143242E8DE
S31508000DFC00310029F3D1202385F8413085F842309B
S31508000E0C002385F84030032000E00020BDE8F88375
S31508000E1C704760B310B5044690F8413013B32423D9
S31508000E2C84F841302268D36823F40053D3602046F3
S31508000E3CFFF760FF2268136923F490431361226855
S31508000E4C536923F02A0353612268D36843F4005389
S31508000E5CD36000206064202384F8413084F8423043
S31508000E6C606310BD80F84030FFF7D2FFD7E701204A
S31508000E7C70472DE9F04182B01E4690F84230DBB23D
S31508000E8C202B53D104460D469046002952D00AB958
S31508000E9C01204CE000234364222280F8422003639D
S31508000EACFFF772FA0746A4F82C80A4F82E80A368DC
S31508000EBCB3F5805F02D04FF0000817E0236913B131
S31508000ECC4FF0000812E0A84600250FE023685B687F
S31508000EDCC3F3080328F8023B03E023685B682B700E
S31508000EEC0135E28D92B2013A92B2E285E38D9BB25C
S31508000EFCBBB100963B46002220212046FFF744FF53
S31508000F0CD0B9002DE2D0A368B3F5805FE5D013B94C
S31508000F1C2369002BE1D023685B6803F07F032B70F1
S31508000F2CDEE7202384F84230002000E0022002B0DD
S31508000F3CBDE8F0810120FAE70320F8E770470000C6
S31508000F4C014A024B9A6070470000000800ED00E069
S31508000F5C00B591B0012306934FF4A0220792002204
S31508000F6C08920A9302230D934FF480330E934FF491
S31508000F7CE0130F9306A8FFF7AFFB00B1FEE70F23AC
S31508000F8C019302210291002303934FF48062049289
S31508000F9C059301A8FFF7D2FD00B1FEE711B05DF885
S31508000FAC04FB08B5FFF7CCFFFFF7D0F9FFF7D0FF26
S31508000FBC00F096F8FFF774F908BD08B5FFF7F1FFCE
S31508000FCCFFF708F9FFF776F9FFF766F9FAE7000075
S31508000FDCF0B58BB03F4B9A6942F001029A619A6957
S31508000FEC02F001020192019ADA6942F08052DA6142
S31508000FFCDA6902F080520292029A9A6942F0040265
S3150800100C9A619A6902F004020392039A9A6942F069
S3150800101C08029A619A6902F008020492049ADA693B
S3150800102C42F40032DA61DB6903F400330593059B5D
S3150800103C0320FFF7AFF9002211466FF00B00FFF7FC
S3150800104CBBF9002211466FF00A00FFF7B5F900222A
S3150800105C11466FF00900FFF7AFF9002211466FF041
S3150800106C0400FFF7A9F9002211466FF00300FFF7F9
S3150800107CA3F9002211466FF00100FFF79DF9002233
S3150800108C11464FF0FF30FFF797F90427069701230F
S3150800109C079300240894022609960F4D06A928469C
S315080010ACFFF7ECF9224620210C48FFF7F9FA0697C8
S315080010BC07960323099306A92846FFF7DFF90823A1
S315080010CC06930794089406A92846FFF7D7F90BB098
S315080010DCF0BD00BF0010024000080140000C0140A2
S315080010EC08B5FFF7E1FD084BA3FB00308009FFF7B5
S315080010FC9BF90420FFF7ACF9002211464FF0FF309C
S3150800110CFFF75AF908BD00BFD34D621008B5FFF7B3
S3150800111C3BF908BD08B5FFF72BF9FFF7AAF908BD87
S3150800112C70B500260C4D0D4C641BA410A64209D1B3
S3150800113C00F01AF800260A4D0A4C641BA410A642A5
S3150800114C05D170BD55F8043B98470136EEE755F8BE
S3150800115C043B98470136F2E7B8110008B8110008A5
S3150800116CB8110008BC110008F8B500BFF8BC08BCDB
S3150800117C9E467047F8B500BFF8BC08BC9E4670473B
S3150800118C02030405060708090A0B0C0D0E0F1010AE
S3150800119C0102000000000000000000000102030428
S311080011AC06070809000000000102030401
S309080011B831010008EB
S309080011BC0D0100080B
S311080011C001000000100000000024F400EC
S7050800014DA4
